{
  "_format": "hh-sol-artifact-1",
  "contractName": "Campaign",
  "sourceName": "contracts/CryptoCare.sol",
  "abi": [
    {
      "inputs": [
        {
          "internalType": "uint256",
          "name": "_id",
          "type": "uint256"
        },
        {
          "internalType": "string",
          "name": "_title",
          "type": "string"
        },
        {
          "internalType": "string",
          "name": "_url",
          "type": "string"
        },
        {
          "internalType": "string",
          "name": "_story",
          "type": "string"
        },
        {
          "internalType": "uint256",
          "name": "_date",
          "type": "uint256"
        },
        {
          "internalType": "uint256",
          "name": "_duration",
          "type": "uint256"
        },
        {
          "internalType": "address",
          "name": "_creator",
          "type": "address"
        },
        {
          "internalType": "uint256",
          "name": "_target",
          "type": "uint256"
        },
        {
          "internalType": "uint256",
          "name": "_tipes",
          "type": "uint256"
        },
        {
          "internalType": "string",
          "name": "_category",
          "type": "string"
        },
        {
          "internalType": "uint256",
          "name": "_minimum",
          "type": "uint256"
        }
      ],
      "stateMutability": "nonpayable",
      "type": "constructor"
    },
    {
      "inputs": [],
      "name": "accCampaign",
      "outputs": [],
      "stateMutability": "nonpayable",
      "type": "function"
    },
    {
      "inputs": [
        {
          "internalType": "uint256",
          "name": "index",
          "type": "uint256"
        }
      ],
      "name": "approvalWithdrawl",
      "outputs": [],
      "stateMutability": "nonpayable",
      "type": "function"
    },
    {
      "inputs": [
        {
          "internalType": "address",
          "name": "",
          "type": "address"
        },
        {
          "internalType": "uint256",
          "name": "",
          "type": "uint256"
        }
      ],
      "name": "approvals",
      "outputs": [
        {
          "internalType": "bool",
          "name": "",
          "type": "bool"
        }
      ],
      "stateMutability": "view",
      "type": "function"
    },
    {
      "inputs": [],
      "name": "campaignReport",
      "outputs": [
        {
          "internalType": "uint256",
          "name": "",
          "type": "uint256"
        }
      ],
      "stateMutability": "view",
      "type": "function"
    },
    {
      "inputs": [
        {
          "internalType": "uint256",
          "name": "index",
          "type": "uint256"
        }
      ],
      "name": "cancelApprovalWithdrawl",
      "outputs": [],
      "stateMutability": "nonpayable",
      "type": "function"
    },
    {
      "inputs": [],
      "name": "collectedFunds",
      "outputs": [
        {
          "internalType": "uint256",
          "name": "",
          "type": "uint256"
        }
      ],
      "stateMutability": "view",
      "type": "function"
    },
    {
      "inputs": [],
      "name": "contribute",
      "outputs": [],
      "stateMutability": "payable",
      "type": "function"
    },
    {
      "inputs": [
        {
          "internalType": "uint256",
          "name": "",
          "type": "uint256"
        }
      ],
      "name": "contributors",
      "outputs": [
        {
          "internalType": "address",
          "name": "",
          "type": "address"
        }
      ],
      "stateMutability": "view",
      "type": "function"
    },
    {
      "inputs": [
        {
          "internalType": "string",
          "name": "_description",
          "type": "string"
        },
        {
          "internalType": "uint256",
          "name": "_value",
          "type": "uint256"
        },
        {
          "internalType": "address payable",
          "name": "_recipient",
          "type": "address"
        }
      ],
      "name": "createWithdrawl",
      "outputs": [],
      "stateMutability": "nonpayable",
      "type": "function"
    },
    {
      "inputs": [
        {
          "internalType": "uint256",
          "name": "",
          "type": "uint256"
        }
      ],
      "name": "donateTime",
      "outputs": [
        {
          "internalType": "uint256",
          "name": "",
          "type": "uint256"
        }
      ],
      "stateMutability": "view",
      "type": "function"
    },
    {
      "inputs": [
        {
          "internalType": "address",
          "name": "",
          "type": "address"
        }
      ],
      "name": "donatedValue",
      "outputs": [
        {
          "internalType": "uint256",
          "name": "",
          "type": "uint256"
        }
      ],
      "stateMutability": "view",
      "type": "function"
    },
    {
      "inputs": [
        {
          "internalType": "uint256",
          "name": "",
          "type": "uint256"
        }
      ],
      "name": "donations",
      "outputs": [
        {
          "internalType": "uint256",
          "name": "",
          "type": "uint256"
        }
      ],
      "stateMutability": "view",
      "type": "function"
    },
    {
      "inputs": [],
      "name": "donatursCount",
      "outputs": [
        {
          "internalType": "uint256",
          "name": "",
          "type": "uint256"
        }
      ],
      "stateMutability": "view",
      "type": "function"
    },
    {
      "inputs": [
        {
          "internalType": "address",
          "name": "",
          "type": "address"
        }
      ],
      "name": "donors",
      "outputs": [
        {
          "internalType": "bool",
          "name": "",
          "type": "bool"
        }
      ],
      "stateMutability": "view",
      "type": "function"
    },
    {
      "inputs": [
        {
          "internalType": "string",
          "name": "_title",
          "type": "string"
        },
        {
          "internalType": "string",
          "name": "_url",
          "type": "string"
        },
        {
          "internalType": "uint256",
          "name": "_minimum",
          "type": "uint256"
        }
      ],
      "name": "editCampaign",
      "outputs": [],
      "stateMutability": "nonpayable",
      "type": "function"
    },
    {
      "inputs": [],
      "name": "endCampaign",
      "outputs": [],
      "stateMutability": "nonpayable",
      "type": "function"
    },
    {
      "inputs": [
        {
          "internalType": "uint256",
          "name": "index",
          "type": "uint256"
        }
      ],
      "name": "finalizeWd",
      "outputs": [],
      "stateMutability": "nonpayable",
      "type": "function"
    },
    {
      "inputs": [],
      "name": "getCampaign",
      "outputs": [
        {
          "internalType": "string",
          "name": "",
          "type": "string"
        },
        {
          "internalType": "string",
          "name": "",
          "type": "string"
        },
        {
          "internalType": "string[]",
          "name": "",
          "type": "string[]"
        },
        {
          "internalType": "uint256",
          "name": "",
          "type": "uint256"
        },
        {
          "internalType": "uint256",
          "name": "",
          "type": "uint256"
        },
        {
          "internalType": "address",
          "name": "",
          "type": "address"
        },
        {
          "internalType": "uint256",
          "name": "",
          "type": "uint256"
        },
        {
          "internalType": "string",
          "name": "",
          "type": "string"
        },
        {
          "internalType": "uint256",
          "name": "",
          "type": "uint256"
        },
        {
          "internalType": "uint256",
          "name": "",
          "type": "uint256"
        },
        {
          "internalType": "uint256",
          "name": "",
          "type": "uint256"
        },
        {
          "internalType": "bool",
          "name": "",
          "type": "bool"
        }
      ],
      "stateMutability": "view",
      "type": "function"
    },
    {
      "inputs": [],
      "name": "getDetailed",
      "outputs": [
        {
          "internalType": "uint256",
          "name": "",
          "type": "uint256"
        },
        {
          "internalType": "uint256",
          "name": "",
          "type": "uint256"
        },
        {
          "internalType": "address[]",
          "name": "",
          "type": "address[]"
        },
        {
          "internalType": "uint256[]",
          "name": "",
          "type": "uint256[]"
        },
        {
          "internalType": "uint256",
          "name": "",
          "type": "uint256"
        },
        {
          "internalType": "uint256[]",
          "name": "",
          "type": "uint256[]"
        }
      ],
      "stateMutability": "view",
      "type": "function"
    },
    {
      "inputs": [],
      "name": "getRequestWithdrawl",
      "outputs": [
        {
          "components": [
            {
              "internalType": "string",
              "name": "description",
              "type": "string"
            },
            {
              "internalType": "uint256",
              "name": "value",
              "type": "uint256"
            },
            {
              "internalType": "address payable",
              "name": "recipient",
              "type": "address"
            },
            {
              "internalType": "bool",
              "name": "complete",
              "type": "bool"
            },
            {
              "internalType": "uint256",
              "name": "createTimestamp",
              "type": "uint256"
            },
            {
              "internalType": "uint256",
              "name": "completedTimestamp",
              "type": "uint256"
            },
            {
              "internalType": "uint256",
              "name": "approvalsCount",
              "type": "uint256"
            }
          ],
          "internalType": "struct Campaign.WithdrawlStruct[]",
          "name": "",
          "type": "tuple[]"
        }
      ],
      "stateMutability": "view",
      "type": "function"
    },
    {
      "inputs": [],
      "name": "refundDonate",
      "outputs": [],
      "stateMutability": "nonpayable",
      "type": "function"
    },
    {
      "inputs": [],
      "name": "rejectCampaign",
      "outputs": [],
      "stateMutability": "nonpayable",
      "type": "function"
    },
    {
      "inputs": [],
      "name": "reportCampaign",
      "outputs": [],
      "stateMutability": "nonpayable",
      "type": "function"
    },
    {
      "inputs": [
        {
          "internalType": "address",
          "name": "",
          "type": "address"
        }
      ],
      "name": "reported",
      "outputs": [
        {
          "internalType": "bool",
          "name": "",
          "type": "bool"
        }
      ],
      "stateMutability": "view",
      "type": "function"
    },
    {
      "inputs": [
        {
          "internalType": "string",
          "name": "description",
          "type": "string"
        },
        {
          "internalType": "address payable",
          "name": "recipient",
          "type": "address"
        },
        {
          "internalType": "uint256",
          "name": "wdValue",
          "type": "uint256"
        }
      ],
      "name": "urgentWd",
      "outputs": [],
      "stateMutability": "nonpayable",
      "type": "function"
    },
    {
      "inputs": [
        {
          "internalType": "address",
          "name": "",
          "type": "address"
        }
      ],
      "name": "voter",
      "outputs": [
        {
          "internalType": "bool",
          "name": "",
          "type": "bool"
        }
      ],
      "stateMutability": "view",
      "type": "function"
    },
    {
      "inputs": [],
      "name": "voterCount",
      "outputs": [
        {
          "internalType": "uint256",
          "name": "",
          "type": "uint256"
        }
      ],
      "stateMutability": "view",
      "type": "function"
    },
    {
      "inputs": [
        {
          "internalType": "uint256",
          "name": "",
          "type": "uint256"
        }
      ],
      "name": "withdrawls",
      "outputs": [
        {
          "internalType": "string",
          "name": "description",
          "type": "string"
        },
        {
          "internalType": "uint256",
          "name": "value",
          "type": "uint256"
        },
        {
          "internalType": "address payable",
          "name": "recipient",
          "type": "address"
        },
        {
          "internalType": "bool",
          "name": "complete",
          "type": "bool"
        },
        {
          "internalType": "uint256",
          "name": "createTimestamp",
          "type": "uint256"
        },
        {
          "internalType": "uint256",
          "name": "completedTimestamp",
          "type": "uint256"
        },
        {
          "internalType": "uint256",
          "name": "approvalsCount",
          "type": "uint256"
        }
      ],
      "stateMutability": "view",
      "type": "function"
    }
  ],
  "bytecode": "0x60806040523480156200001157600080fd5b5060405162003e8238038062003e828339818101604052810190620000379190620003c5565b8a600c8190555089600d90816200004f91906200078f565b5088600e90816200006191906200078f565b50600f889080600181540180825580915050600190039060005260206000200160009091909190915090816200009891906200078f565b50866010819055508560118190555084601260006101000a81548173ffffffffffffffffffffffffffffffffffffffff021916908373ffffffffffffffffffffffffffffffffffffffff160217905550836013819055508260148190555081601590816200010791906200078f565b5080601681905550600060058190555060006007819055506001600860006101000a81548160ff0219169083151502179055506040518060400160405280600481526020017f7761697400000000000000000000000000000000000000000000000000000000815250601790816200018091906200078f565b50505050505050505050505062000876565b6000604051905090565b600080fd5b600080fd5b6000819050919050565b620001bb81620001a6565b8114620001c757600080fd5b50565b600081519050620001db81620001b0565b92915050565b600080fd5b600080fd5b6000601f19601f8301169050919050565b7f4e487b7100000000000000000000000000000000000000000000000000000000600052604160045260246000fd5b6200023682620001eb565b810181811067ffffffffffffffff82111715620002585762000257620001fc565b5b80604052505050565b60006200026d62000192565b90506200027b82826200022b565b919050565b600067ffffffffffffffff8211156200029e576200029d620001fc565b5b620002a982620001eb565b9050602081019050919050565b60005b83811015620002d6578082015181840152602081019050620002b9565b60008484015250505050565b6000620002f9620002f38462000280565b62000261565b905082815260208101848484011115620003185762000317620001e6565b5b62000325848285620002b6565b509392505050565b600082601f830112620003455762000344620001e1565b5b815162000357848260208601620002e2565b91505092915050565b600073ffffffffffffffffffffffffffffffffffffffff82169050919050565b60006200038d8262000360565b9050919050565b6200039f8162000380565b8114620003ab57600080fd5b50565b600081519050620003bf8162000394565b92915050565b60008060008060008060008060008060006101608c8e031215620003ee57620003ed6200019c565b5b6000620003fe8e828f01620001ca565b9b505060208c015167ffffffffffffffff811115620004225762000421620001a1565b5b620004308e828f016200032d565b9a505060408c015167ffffffffffffffff811115620004545762000453620001a1565b5b620004628e828f016200032d565b99505060608c015167ffffffffffffffff811115620004865762000485620001a1565b5b620004948e828f016200032d565b9850506080620004a78e828f01620001ca565b97505060a0620004ba8e828f01620001ca565b96505060c0620004cd8e828f01620003ae565b95505060e0620004e08e828f01620001ca565b945050610100620004f48e828f01620001ca565b9350506101208c015167ffffffffffffffff811115620005195762000518620001a1565b5b620005278e828f016200032d565b9250506101406200053b8e828f01620001ca565b9150509295989b509295989b9093969950565b600081519050919050565b7f4e487b7100000000000000000000000000000000000000000000000000000000600052602260045260246000fd5b60006002820490506001821680620005a157607f821691505b602082108103620005b757620005b662000559565b5b50919050565b60008190508160005260206000209050919050565b60006020601f8301049050919050565b600082821b905092915050565b600060088302620006217fffffffffffffffffffffffffffffffffffffffffffffffffffffffffffffffff82620005e2565b6200062d8683620005e2565b95508019841693508086168417925050509392505050565b6000819050919050565b6000620006706200066a6200066484620001a6565b62000645565b620001a6565b9050919050565b6000819050919050565b6200068c836200064f565b620006a46200069b8262000677565b848454620005ef565b825550505050565b600090565b620006bb620006ac565b620006c881848462000681565b505050565b5b81811015620006f057620006e4600082620006b1565b600181019050620006ce565b5050565b601f8211156200073f576200070981620005bd565b6200071484620005d2565b8101602085101562000724578190505b6200073c6200073385620005d2565b830182620006cd565b50505b505050565b600082821c905092915050565b6000620007646000198460080262000744565b1980831691505092915050565b60006200077f838362000751565b9150826002028217905092915050565b6200079a826200054e565b67ffffffffffffffff811115620007b657620007b5620001fc565b5b620007c2825462000588565b620007cf828285620006f4565b600060209050601f831160018114620008075760008415620007f2578287015190505b620007fe858262000771565b8655506200086e565b601f1984166200081786620005bd565b60005b8281101562000841578489015182556001820191506020850194506020810190506200081a565b868310156200086157848901516200085d601f89168262000751565b8355505b6001600288020188555050505b505050505050565b6135fc80620008866000396000f3fe6080604052600436106101b75760003560e01c806364256611116100ec578063b2136ff41161008a578063d7bb99ba11610064578063d7bb99ba146105e3578063f8626af8146105ed578063fc4a47fd1461062a578063ffabc6731461065a576101b7565b8063b2136ff41461053e578063ca0cdea814610569578063d2fea16b146105a6576101b7565b806371aac7f9116100c657806371aac7f91461047e578063844db45014610495578063ac687cc4146104be578063af0dbe5414610501576101b7565b806364256611146104255780636c0ddc1214610450578063705f33d614610467576101b7565b8063351ebb29116101595780633cb5d100116101335780633cb5d100146103555780633eaa91f51461039257806342169e48146103cf5780634eceeff8146103fa576101b7565b8063351ebb29146102d85780633a9eec5c146103035780633c4ba3f61461032c576101b7565b80631cbe2006116101955780631cbe200614610237578063236b8e3a146102745780633166e9c0146102aa57806333831f6f146102c1576101b7565b80630f8ca5ca146101bc57806311a36c43146101e557806314e420c51461020e575b600080fd5b3480156101c857600080fd5b506101e360048036038101906101de91906121e8565b610697565b005b3480156101f157600080fd5b5061020c600480360381019061020791906123b9565b6108a4565b005b34801561021a57600080fd5b5061023560048036038101906102309190612428565b610b24565b005b34801561024357600080fd5b5061025e600480360381019061025991906124f1565b610b50565b60405161026b919061252d565b60405180910390f35b34801561028057600080fd5b50610289610b68565b6040516102a19c9b9a999897969594939291906126fd565b60405180910390f35b3480156102b657600080fd5b506102bf610e65565b005b3480156102cd57600080fd5b506102d6610eac565b005b3480156102e457600080fd5b506102ed611199565b6040516102fa919061252d565b60405180910390f35b34801561030f57600080fd5b5061032a600480360381019061032591906127d3565b61119f565b005b34801561033857600080fd5b50610353600480360381019061034e91906121e8565b6112f4565b005b34801561036157600080fd5b5061037c600480360381019061037791906121e8565b611541565b6040516103899190612842565b60405180910390f35b34801561039e57600080fd5b506103b960048036038101906103b491906124f1565b611580565b6040516103c6919061285d565b60405180910390f35b3480156103db57600080fd5b506103e46115a0565b6040516103f1919061252d565b60405180910390f35b34801561040657600080fd5b5061040f6115a6565b60405161041c9190612a03565b60405180910390f35b34801561043157600080fd5b5061043a611730565b604051610447919061252d565b60405180910390f35b34801561045c57600080fd5b50610465611736565b005b34801561047357600080fd5b5061047c6118d3565b005b34801561048a57600080fd5b5061049361191a565b005b3480156104a157600080fd5b506104bc60048036038101906104b791906121e8565b611937565b005b3480156104ca57600080fd5b506104e560048036038101906104e091906121e8565b611b83565b6040516104f89796959493929190612a34565b60405180910390f35b34801561050d57600080fd5b50610528600480360381019061052391906124f1565b611c8a565b604051610535919061285d565b60405180910390f35b34801561054a57600080fd5b50610553611caa565b604051610560919061252d565b60405180910390f35b34801561057557600080fd5b50610590600480360381019061058b91906124f1565b611cb0565b60405161059d919061285d565b60405180910390f35b3480156105b257600080fd5b506105cd60048036038101906105c891906121e8565b611cd0565b6040516105da919061252d565b60405180910390f35b6105eb611cf4565b005b3480156105f957600080fd5b50610614600480360381019061060f91906121e8565b611ff2565b604051610621919061252d565b60405180910390f35b34801561063657600080fd5b5061063f612016565b60405161065196959493929190612c17565b60405180910390f35b34801561066657600080fd5b50610681600480360381019061067c9190612c8d565b61216f565b60405161068e919061285d565b60405180910390f35b601260009054906101000a900473ffffffffffffffffffffffffffffffffffffffff1673ffffffffffffffffffffffffffffffffffffffff163373ffffffffffffffffffffffffffffffffffffffff16146106f157600080fd5b60011515600860009054906101000a900460ff1615151461071157600080fd5b60006019828154811061072757610726612ccd565b5b9060005260206000209060060201905060026004546107469190612d5a565b8160050154101561078c576040517f08c379a000000000000000000000000000000000000000000000000000000000815260040161078390612dd7565b60405180910390fd5b8060020160149054906101000a900460ff16156107de576040517f08c379a00000000000000000000000000000000000000000000000000000000081526004016107d590612e69565b60405180910390fd5b60008160020160009054906101000a900473ffffffffffffffffffffffffffffffffffffffff1673ffffffffffffffffffffffffffffffffffffffff16826001015460405161082c90612eba565b60006040518083038185875af1925050503d8060008114610869576040519150601f19603f3d011682016040523d82523d6000602084013e61086e565b606091505b50509050801561089f5760018260020160146101000a81548160ff0219169083151502179055504282600401819055505b505050565b601260009054906101000a900473ffffffffffffffffffffffffffffffffffffffff1673ffffffffffffffffffffffffffffffffffffffff163373ffffffffffffffffffffffffffffffffffffffff16146108fe57600080fd5b60011515600860009054906101000a900460ff1615151461091e57600080fd5b600060196001816001815401808255809150500390600052602060002090600602019050600160145414610987576040517f08c379a000000000000000000000000000000000000000000000000000000000815260040161097e90612f41565b60405180910390fd5b8060020160149054906101000a900460ff16156109d9576040517f08c379a00000000000000000000000000000000000000000000000000000000081526004016109d090612e69565b60405180910390fd5b47821115610a1c576040517f08c379a0000000000000000000000000000000000000000000000000000000008152600401610a1390612fad565b60405180910390fd5b60008373ffffffffffffffffffffffffffffffffffffffff1683604051610a4290612eba565b60006040518083038185875af1925050503d8060008114610a7f576040519150601f19603f3d011682016040523d82523d6000602084013e610a84565b606091505b505090508015610b1d5784826000019081610a9f91906131d9565b50828260010181905550838260020160006101000a81548173ffffffffffffffffffffffffffffffffffffffff021916908373ffffffffffffffffffffffffffffffffffffffff1602179055504282600401819055506000826005018190555060018260020160146101000a81548160ff0219169083151502179055505b5050505050565b82600d9081610b3391906131d9565b5081600e9081610b4391906131d9565b5080601681905550505050565b60036020528060005260406000206000915090505481565b60608060606000806000806060600080600080600d600e600f601054600754601260009054906101000a900473ffffffffffffffffffffffffffffffffffffffff166014546015601354600554601154600860009054906101000a900460ff168b8054610bd490612ffc565b80601f0160208091040260200160405190810160405280929190818152602001828054610c0090612ffc565b8015610c4d5780601f10610c2257610100808354040283529160200191610c4d565b820191906000526020600020905b815481529060010190602001808311610c3057829003601f168201915b50505050509b508a8054610c6090612ffc565b80601f0160208091040260200160405190810160405280929190818152602001828054610c8c90612ffc565b8015610cd95780601f10610cae57610100808354040283529160200191610cd9565b820191906000526020600020905b815481529060010190602001808311610cbc57829003601f168201915b50505050509a5089805480602002602001604051908101604052809291908181526020016000905b82821015610dad578382906000526020600020018054610d2090612ffc565b80601f0160208091040260200160405190810160405280929190818152602001828054610d4c90612ffc565b8015610d995780601f10610d6e57610100808354040283529160200191610d99565b820191906000526020600020905b815481529060010190602001808311610d7c57829003601f168201915b505050505081526020019060010190610d01565b505050509950848054610dbf90612ffc565b80601f0160208091040260200160405190810160405280929190818152602001828054610deb90612ffc565b8015610e385780601f10610e0d57610100808354040283529160200191610e38565b820191906000526020600020905b815481529060010190602001808311610e1b57829003601f168201915b505050505094509b509b509b509b509b509b509b509b509b509b509b509b50909192939495969798999a9b565b6040518060400160405280600681526020017f616363657074000000000000000000000000000000000000000000000000000081525060179081610ea991906131d9565b50565b60003390506000808273ffffffffffffffffffffffffffffffffffffffff1673ffffffffffffffffffffffffffffffffffffffff16815260200190815260200160002060009054906101000a900460ff16610f0657600080fd5b6000600360008373ffffffffffffffffffffffffffffffffffffffff1673ffffffffffffffffffffffffffffffffffffffff1681526020019081526020016000205411610f5257600080fd5b6000600360008373ffffffffffffffffffffffffffffffffffffffff1673ffffffffffffffffffffffffffffffffffffffff16815260200190815260200160002054905060008273ffffffffffffffffffffffffffffffffffffffff1682604051610fbc90612eba565b60006040518083038185875af1925050503d8060008114610ff9576040519150601f19603f3d011682016040523d82523d6000602084013e610ffe565b606091505b505090508015611194578160075461101691906132ab565b6007819055506000600360008573ffffffffffffffffffffffffffffffffffffffff1673ffffffffffffffffffffffffffffffffffffffff1681526020019081526020016000208190555060008060008573ffffffffffffffffffffffffffffffffffffffff1673ffffffffffffffffffffffffffffffffffffffff16815260200190815260200160002060006101000a81548160ff021916908315150217905550600560008154809291906110cb906132df565b9190505550600160008473ffffffffffffffffffffffffffffffffffffffff1673ffffffffffffffffffffffffffffffffffffffff16815260200190815260200160002060009054906101000a900460ff16156111935760046000815480929190611135906132df565b91905055506000600160008573ffffffffffffffffffffffffffffffffffffffff1673ffffffffffffffffffffffffffffffffffffffff16815260200190815260200160002060006101000a81548160ff0219169083151502179055505b5b505050565b60065481565b601260009054906101000a900473ffffffffffffffffffffffffffffffffffffffff1673ffffffffffffffffffffffffffffffffffffffff163373ffffffffffffffffffffffffffffffffffffffff16146111f957600080fd5b4782111561123c576040517f08c379a00000000000000000000000000000000000000000000000000000000081526004016112339061337a565b60405180910390fd5b6000601960018160018154018082558091505003906000526020600020906006020190508381600001908161127191906131d9565b50828160010181905550818160020160006101000a81548173ffffffffffffffffffffffffffffffffffffffff021916908373ffffffffffffffffffffffffffffffffffffffff16021790555060008160020160146101000a81548160ff0219169083151502179055504281600301819055506000816005018190555050505050565b600160003373ffffffffffffffffffffffffffffffffffffffff1673ffffffffffffffffffffffffffffffffffffffff16815260200190815260200160002060009054906101000a900460ff1661134a57600080fd5b60011515600860009054906101000a900460ff1615151461136a57600080fd5b6000601982815481106113805761137f612ccd565b5b90600052602060002090600602019050600160003373ffffffffffffffffffffffffffffffffffffffff1673ffffffffffffffffffffffffffffffffffffffff16815260200190815260200160002060009054906101000a900460ff1661141c576040517f08c379a0000000000000000000000000000000000000000000000000000000008152600401611413906133e6565b60405180910390fd5b601860003373ffffffffffffffffffffffffffffffffffffffff1673ffffffffffffffffffffffffffffffffffffffff168152602001908152602001600020600083815260200190815260200160002060009054906101000a900460ff16156114ba576040517f08c379a00000000000000000000000000000000000000000000000000000000081526004016114b190613452565b60405180910390fd5b6001601860003373ffffffffffffffffffffffffffffffffffffffff1673ffffffffffffffffffffffffffffffffffffffff168152602001908152602001600020600084815260200190815260200160002060006101000a81548160ff02191690831515021790555080600501600081548092919061153890613472565b91905055505050565b6009818154811061155157600080fd5b906000526020600020016000915054906101000a900473ffffffffffffffffffffffffffffffffffffffff1681565b60026020528060005260406000206000915054906101000a900460ff1681565b60045481565b60606019805480602002602001604051908101604052809291908181526020016000905b8282101561172757838290600052602060002090600602016040518060e00160405290816000820180546115fd90612ffc565b80601f016020809104026020016040519081016040528092919081815260200182805461162990612ffc565b80156116765780601f1061164b57610100808354040283529160200191611676565b820191906000526020600020905b81548152906001019060200180831161165957829003601f168201915b50505050508152602001600182015481526020016002820160009054906101000a900473ffffffffffffffffffffffffffffffffffffffff1673ffffffffffffffffffffffffffffffffffffffff1673ffffffffffffffffffffffffffffffffffffffff1681526020016002820160149054906101000a900460ff161515151581526020016003820154815260200160048201548152602001600582015481525050815260200190600101906115ca565b50505050905090565b60075481565b60001515600260003373ffffffffffffffffffffffffffffffffffffffff1673ffffffffffffffffffffffffffffffffffffffff16815260200190815260200160002060009054906101000a900460ff161515146117c9576040517f08c379a00000000000000000000000000000000000000000000000000000000081526004016117c090613506565b60405180910390fd5b6000803373ffffffffffffffffffffffffffffffffffffffff1673ffffffffffffffffffffffffffffffffffffffff16815260200190815260200160002060009054906101000a900460ff1661181e57600080fd5b6006600081548092919061183190613472565b91905055506001600260003373ffffffffffffffffffffffffffffffffffffffff1673ffffffffffffffffffffffffffffffffffffffff16815260200190815260200160002060006101000a81548160ff021916908315150217905550600260055461189d9190612d5a565b6006541180156118b05750600360055410155b156118d1576000600860006101000a81548160ff0219169083151502179055505b565b6040518060400160405280600681526020017f72656a65637400000000000000000000000000000000000000000000000000008152506017908161191791906131d9565b50565b6000600860006101000a81548160ff021916908315150217905550565b600160003373ffffffffffffffffffffffffffffffffffffffff1673ffffffffffffffffffffffffffffffffffffffff16815260200190815260200160002060009054906101000a900460ff1661198d57600080fd5b60011515600860009054906101000a900460ff161515146119ad57600080fd5b6000601982815481106119c3576119c2612ccd565b5b90600052602060002090600602019050600160003373ffffffffffffffffffffffffffffffffffffffff1673ffffffffffffffffffffffffffffffffffffffff16815260200190815260200160002060009054906101000a900460ff16611a5f576040517f08c379a0000000000000000000000000000000000000000000000000000000008152600401611a56906133e6565b60405180910390fd5b601860003373ffffffffffffffffffffffffffffffffffffffff1673ffffffffffffffffffffffffffffffffffffffff168152602001908152602001600020600083815260200190815260200160002060009054906101000a900460ff16611afc576040517f08c379a0000000000000000000000000000000000000000000000000000000008152600401611af390613572565b60405180910390fd5b6000601860003373ffffffffffffffffffffffffffffffffffffffff1673ffffffffffffffffffffffffffffffffffffffff168152602001908152602001600020600084815260200190815260200160002060006101000a81548160ff021916908315150217905550806005016000815480929190611b7a906132df565b91905055505050565b60198181548110611b9357600080fd5b9060005260206000209060060201600091509050806000018054611bb690612ffc565b80601f0160208091040260200160405190810160405280929190818152602001828054611be290612ffc565b8015611c2f5780601f10611c0457610100808354040283529160200191611c2f565b820191906000526020600020905b815481529060010190602001808311611c1257829003601f168201915b5050505050908060010154908060020160009054906101000a900473ffffffffffffffffffffffffffffffffffffffff16908060020160149054906101000a900460ff16908060030154908060040154908060050154905087565b60016020528060005260406000206000915054906101000a900460ff1681565b60055481565b60006020528060005260406000206000915054906101000a900460ff1681565b600b8181548110611ce057600080fd5b906000526020600020016000915090505481565b60011515600860009054906101000a900460ff16151514611d1457600080fd5b60003490506009339080600181540180825580915050600190039060005260206000200160009091909190916101000a81548173ffffffffffffffffffffffffffffffffffffffff021916908373ffffffffffffffffffffffffffffffffffffffff160217905550600a819080600181540180825580915050600190039060005260206000200160009091909190915055600b42908060018154018082558091505060019003906000526020600020016000909190919091505580600754611ddc9190613592565b60078190555034600360003373ffffffffffffffffffffffffffffffffffffffff1673ffffffffffffffffffffffffffffffffffffffff16815260200190815260200160002054611e2d9190613592565b600360003373ffffffffffffffffffffffffffffffffffffffff1673ffffffffffffffffffffffffffffffffffffffff1681526020019081526020016000208190555060016000803373ffffffffffffffffffffffffffffffffffffffff1673ffffffffffffffffffffffffffffffffffffffff16815260200190815260200160002060006101000a81548160ff02191690831515021790555060056000815480929190611eda90613472565b9190505550601654600360003373ffffffffffffffffffffffffffffffffffffffff1673ffffffffffffffffffffffffffffffffffffffff1681526020019081526020016000205410158015611f7a5750600160003373ffffffffffffffffffffffffffffffffffffffff1673ffffffffffffffffffffffffffffffffffffffff16815260200190815260200160002060009054906101000a900460ff16155b15611fef5760018060003373ffffffffffffffffffffffffffffffffffffffff1673ffffffffffffffffffffffffffffffffffffffff16815260200190815260200160002060006101000a81548160ff02191690831515021790555060046000815480929190611fe990613472565b91905055505b50565b600a818154811061200257600080fd5b906000526020600020016000915090505481565b600080606080600060606004546006546009600a601654600b838054806020026020016040519081016040528092919081815260200182805480156120b057602002820191906000526020600020905b8160009054906101000a900473ffffffffffffffffffffffffffffffffffffffff1673ffffffffffffffffffffffffffffffffffffffff1681526020019060010190808311612066575b505050505093508280548060200260200160405190810160405280929190818152602001828054801561210257602002820191906000526020600020905b8154815260200190600101908083116120ee575b505050505092508080548060200260200160405190810160405280929190818152602001828054801561215457602002820191906000526020600020905b815481526020019060010190808311612140575b50505050509050955095509550955095509550909192939495565b60186020528160005260406000206020528060005260406000206000915091509054906101000a900460ff1681565b6000604051905090565b600080fd5b600080fd5b6000819050919050565b6121c5816121b2565b81146121d057600080fd5b50565b6000813590506121e2816121bc565b92915050565b6000602082840312156121fe576121fd6121a8565b5b600061220c848285016121d3565b91505092915050565b600080fd5b600080fd5b6000601f19601f8301169050919050565b7f4e487b7100000000000000000000000000000000000000000000000000000000600052604160045260246000fd5b6122688261221f565b810181811067ffffffffffffffff8211171561228757612286612230565b5b80604052505050565b600061229a61219e565b90506122a6828261225f565b919050565b600067ffffffffffffffff8211156122c6576122c5612230565b5b6122cf8261221f565b9050602081019050919050565b82818337600083830152505050565b60006122fe6122f9846122ab565b612290565b90508281526020810184848401111561231a5761231961221a565b5b6123258482856122dc565b509392505050565b600082601f83011261234257612341612215565b5b81356123528482602086016122eb565b91505092915050565b600073ffffffffffffffffffffffffffffffffffffffff82169050919050565b60006123868261235b565b9050919050565b6123968161237b565b81146123a157600080fd5b50565b6000813590506123b38161238d565b92915050565b6000806000606084860312156123d2576123d16121a8565b5b600084013567ffffffffffffffff8111156123f0576123ef6121ad565b5b6123fc8682870161232d565b935050602061240d868287016123a4565b925050604061241e868287016121d3565b9150509250925092565b600080600060608486031215612441576124406121a8565b5b600084013567ffffffffffffffff81111561245f5761245e6121ad565b5b61246b8682870161232d565b935050602084013567ffffffffffffffff81111561248c5761248b6121ad565b5b6124988682870161232d565b92505060406124a9868287016121d3565b9150509250925092565b60006124be8261235b565b9050919050565b6124ce816124b3565b81146124d957600080fd5b50565b6000813590506124eb816124c5565b92915050565b600060208284031215612507576125066121a8565b5b6000612515848285016124dc565b91505092915050565b612527816121b2565b82525050565b6000602082019050612542600083018461251e565b92915050565b600081519050919050565b600082825260208201905092915050565b60005b83811015612582578082015181840152602081019050612567565b60008484015250505050565b600061259982612548565b6125a38185612553565b93506125b3818560208601612564565b6125bc8161221f565b840191505092915050565b600081519050919050565b600082825260208201905092915050565b6000819050602082019050919050565b600082825260208201905092915050565b600061260f82612548565b61261981856125f3565b9350612629818560208601612564565b6126328161221f565b840191505092915050565b60006126498383612604565b905092915050565b6000602082019050919050565b6000612669826125c7565b61267381856125d2565b935083602082028501612685856125e3565b8060005b858110156126c157848403895281516126a2858261263d565b94506126ad83612651565b925060208a01995050600181019050612689565b50829750879550505050505092915050565b6126dc816124b3565b82525050565b60008115159050919050565b6126f7816126e2565b82525050565b6000610180820190508181036000830152612718818f61258e565b9050818103602083015261272c818e61258e565b90508181036040830152612740818d61265e565b905061274f606083018c61251e565b61275c608083018b61251e565b61276960a083018a6126d3565b61277660c083018961251e565b81810360e0830152612788818861258e565b905061279861010083018761251e565b6127a661012083018661251e565b6127b461014083018561251e565b6127c26101608301846126ee565b9d9c50505050505050505050505050565b6000806000606084860312156127ec576127eb6121a8565b5b600084013567ffffffffffffffff81111561280a576128096121ad565b5b6128168682870161232d565b9350506020612827868287016121d3565b9250506040612838868287016123a4565b9150509250925092565b600060208201905061285760008301846126d3565b92915050565b600060208201905061287260008301846126ee565b92915050565b600081519050919050565b600082825260208201905092915050565b6000819050602082019050919050565b6128ad816121b2565b82525050565b6128bc8161237b565b82525050565b6128cb816126e2565b82525050565b600060e08301600083015184820360008601526128ee8282612604565b915050602083015161290360208601826128a4565b50604083015161291660408601826128b3565b50606083015161292960608601826128c2565b50608083015161293c60808601826128a4565b5060a083015161294f60a08601826128a4565b5060c083015161296260c08601826128a4565b508091505092915050565b600061297983836128d1565b905092915050565b6000602082019050919050565b600061299982612878565b6129a38185612883565b9350836020820285016129b585612894565b8060005b858110156129f157848403895281516129d2858261296d565b94506129dd83612981565b925060208a019950506001810190506129b9565b50829750879550505050505092915050565b60006020820190508181036000830152612a1d818461298e565b905092915050565b612a2e8161237b565b82525050565b600060e0820190508181036000830152612a4e818a61258e565b9050612a5d602083018961251e565b612a6a6040830188612a25565b612a7760608301876126ee565b612a84608083018661251e565b612a9160a083018561251e565b612a9e60c083018461251e565b98975050505050505050565b600081519050919050565b600082825260208201905092915050565b6000819050602082019050919050565b612adf816124b3565b82525050565b6000612af18383612ad6565b60208301905092915050565b6000602082019050919050565b6000612b1582612aaa565b612b1f8185612ab5565b9350612b2a83612ac6565b8060005b83811015612b5b578151612b428882612ae5565b9750612b4d83612afd565b925050600181019050612b2e565b5085935050505092915050565b600081519050919050565b600082825260208201905092915050565b6000819050602082019050919050565b6000612ba083836128a4565b60208301905092915050565b6000602082019050919050565b6000612bc482612b68565b612bce8185612b73565b9350612bd983612b84565b8060005b83811015612c0a578151612bf18882612b94565b9750612bfc83612bac565b925050600181019050612bdd565b5085935050505092915050565b600060c082019050612c2c600083018961251e565b612c39602083018861251e565b8181036040830152612c4b8187612b0a565b90508181036060830152612c5f8186612bb9565b9050612c6e608083018561251e565b81810360a0830152612c808184612bb9565b9050979650505050505050565b60008060408385031215612ca457612ca36121a8565b5b6000612cb2858286016124dc565b9250506020612cc3858286016121d3565b9150509250929050565b7f4e487b7100000000000000000000000000000000000000000000000000000000600052603260045260246000fd5b7f4e487b7100000000000000000000000000000000000000000000000000000000600052601260045260246000fd5b7f4e487b7100000000000000000000000000000000000000000000000000000000600052601160045260246000fd5b6000612d65826121b2565b9150612d70836121b2565b925082612d8057612d7f612cfc565b5b828204905092915050565b7f417070726f76616c20686173206e6f7420657863656564656420353025000000600082015250565b6000612dc1601d83612553565b9150612dcc82612d8b565b602082019050919050565b60006020820190508181036000830152612df081612db4565b9050919050565b7f54686973207769746864726177616c20686173206265656e20636f6d706c657460008201527f6564000000000000000000000000000000000000000000000000000000000000602082015250565b6000612e53602283612553565b9150612e5e82612df7565b604082019050919050565b60006020820190508181036000830152612e8281612e46565b9050919050565b600081905092915050565b50565b6000612ea4600083612e89565b9150612eaf82612e94565b600082019050919050565b6000612ec582612e97565b9150819050919050565b7f546869732074797065206f662063616d706169676e206973206e6f742075726760008201527f656e740000000000000000000000000000000000000000000000000000000000602082015250565b6000612f2b602383612553565b9150612f3682612ecf565b604082019050919050565b60006020820190508181036000830152612f5a81612f1e565b9050919050565b7f4e6f7420656e6f75676820616d6f756e74000000000000000000000000000000600082015250565b6000612f97601183612553565b9150612fa282612f61565b602082019050919050565b60006020820190508181036000830152612fc681612f8a565b9050919050565b7f4e487b7100000000000000000000000000000000000000000000000000000000600052602260045260246000fd5b6000600282049050600182168061301457607f821691505b60208210810361302757613026612fcd565b5b50919050565b60008190508160005260206000209050919050565b60006020601f8301049050919050565b600082821b905092915050565b60006008830261308f7fffffffffffffffffffffffffffffffffffffffffffffffffffffffffffffffff82613052565b6130998683613052565b95508019841693508086168417925050509392505050565b6000819050919050565b60006130d66130d16130cc846121b2565b6130b1565b6121b2565b9050919050565b6000819050919050565b6130f0836130bb565b6131046130fc826130dd565b84845461305f565b825550505050565b600090565b61311961310c565b6131248184846130e7565b505050565b5b818110156131485761313d600082613111565b60018101905061312a565b5050565b601f82111561318d5761315e8161302d565b61316784613042565b81016020851015613176578190505b61318a61318285613042565b830182613129565b50505b505050565b600082821c905092915050565b60006131b060001984600802613192565b1980831691505092915050565b60006131c9838361319f565b9150826002028217905092915050565b6131e282612548565b67ffffffffffffffff8111156131fb576131fa612230565b5b6132058254612ffc565b61321082828561314c565b600060209050601f8311600181146132435760008415613231578287015190505b61323b85826131bd565b8655506132a3565b601f1984166132518661302d565b60005b8281101561327957848901518255600182019150602085019450602081019050613254565b868310156132965784890151613292601f89168261319f565b8355505b6001600288020188555050505b505050505050565b60006132b6826121b2565b91506132c1836121b2565b92508282039050818111156132d9576132d8612d2b565b5b92915050565b60006132ea826121b2565b9150600082036132fd576132fc612d2b565b5b600182039050919050565b7f54686520646573697265642066756e647320617265206e6f742073756666696360008201527f69656e7420746f206d616b652061207769746864726177616c00000000000000602082015250565b6000613364603983612553565b915061336f82613308565b604082019050919050565b6000602082019050818103600083015261339381613357565b9050919050565b7f416464726573732063616e277420766f74650000000000000000000000000000600082015250565b60006133d0601283612553565b91506133db8261339a565b602082019050919050565b600060208201905081810360008301526133ff816133c3565b9050919050565b7f5573657220616c726561647920766f7465642100000000000000000000000000600082015250565b600061343c601383612553565b915061344782613406565b602082019050919050565b6000602082019050818103600083015261346b8161342f565b9050919050565b600061347d826121b2565b91507fffffffffffffffffffffffffffffffffffffffffffffffffffffffffffffffff82036134af576134ae612d2b565b5b600182019050919050565b7f616c726561647920766f74650000000000000000000000000000000000000000600082015250565b60006134f0600c83612553565b91506134fb826134ba565b602082019050919050565b6000602082019050818103600083015261351f816134e3565b9050919050565b7f55736572206e6f7420766f746520796574000000000000000000000000000000600082015250565b600061355c601183612553565b915061356782613526565b602082019050919050565b6000602082019050818103600083015261358b8161354f565b9050919050565b600061359d826121b2565b91506135a8836121b2565b92508282019050808211156135c0576135bf612d2b565b5b9291505056fea2646970667358221220ae01f942b8f690fcecfa2db81f9f9ff1a78d17458c0e11abdfc277f3955944af64736f6c63430008110033",
  "linkReferences": {},
  "deployedLinkReferences": {}
}