{
  "_format": "hh-sol-artifact-1",
  "contractName": "Campaign",
  "sourceName": "contracts/CryptoCare.sol",
  "abi": [
    {
      "inputs": [
        {
          "internalType": "uint256",
          "name": "_id",
          "type": "uint256"
        },
        {
          "internalType": "string",
          "name": "_title",
          "type": "string"
        },
        {
          "internalType": "string",
          "name": "_url",
          "type": "string"
        },
        {
          "internalType": "string",
          "name": "_story",
          "type": "string"
        },
        {
          "internalType": "uint256",
          "name": "_date",
          "type": "uint256"
        },
        {
          "internalType": "uint256",
          "name": "_duration",
          "type": "uint256"
        },
        {
          "internalType": "address",
          "name": "_creator",
          "type": "address"
        },
        {
          "internalType": "uint256",
          "name": "_target",
          "type": "uint256"
        },
        {
          "internalType": "uint256",
          "name": "_tipes",
          "type": "uint256"
        },
        {
          "internalType": "string",
          "name": "_category",
          "type": "string"
        },
        {
          "internalType": "uint256",
          "name": "_minimum",
          "type": "uint256"
        }
      ],
      "stateMutability": "nonpayable",
      "type": "constructor"
    },
    {
      "inputs": [],
      "name": "accCampaign",
      "outputs": [],
      "stateMutability": "nonpayable",
      "type": "function"
    },
    {
      "inputs": [
        {
          "internalType": "uint256",
          "name": "index",
          "type": "uint256"
        }
      ],
      "name": "approvalWithdrawl",
      "outputs": [],
      "stateMutability": "nonpayable",
      "type": "function"
    },
    {
      "inputs": [
        {
          "internalType": "address",
          "name": "",
          "type": "address"
        },
        {
          "internalType": "uint256",
          "name": "",
          "type": "uint256"
        }
      ],
      "name": "approvals",
      "outputs": [
        {
          "internalType": "bool",
          "name": "",
          "type": "bool"
        }
      ],
      "stateMutability": "view",
      "type": "function"
    },
    {
      "inputs": [],
      "name": "campaignReport",
      "outputs": [
        {
          "internalType": "uint256",
          "name": "",
          "type": "uint256"
        }
      ],
      "stateMutability": "view",
      "type": "function"
    },
    {
      "inputs": [
        {
          "internalType": "uint256",
          "name": "index",
          "type": "uint256"
        }
      ],
      "name": "cancelApprovalWithdrawl",
      "outputs": [],
      "stateMutability": "nonpayable",
      "type": "function"
    },
    {
      "inputs": [],
      "name": "collectedFunds",
      "outputs": [
        {
          "internalType": "uint256",
          "name": "",
          "type": "uint256"
        }
      ],
      "stateMutability": "view",
      "type": "function"
    },
    {
      "inputs": [],
      "name": "contribute",
      "outputs": [],
      "stateMutability": "payable",
      "type": "function"
    },
    {
      "inputs": [
        {
          "internalType": "uint256",
          "name": "",
          "type": "uint256"
        }
      ],
      "name": "contributors",
      "outputs": [
        {
          "internalType": "address",
          "name": "",
          "type": "address"
        }
      ],
      "stateMutability": "view",
      "type": "function"
    },
    {
      "inputs": [
        {
          "internalType": "string",
          "name": "_description",
          "type": "string"
        },
        {
          "internalType": "uint256",
          "name": "_value",
          "type": "uint256"
        },
        {
          "internalType": "address payable",
          "name": "_recipient",
          "type": "address"
        }
      ],
      "name": "createWithdrawl",
      "outputs": [],
      "stateMutability": "nonpayable",
      "type": "function"
    },
    {
      "inputs": [
        {
          "internalType": "uint256",
          "name": "",
          "type": "uint256"
        }
      ],
      "name": "donateTime",
      "outputs": [
        {
          "internalType": "uint256",
          "name": "",
          "type": "uint256"
        }
      ],
      "stateMutability": "view",
      "type": "function"
    },
    {
      "inputs": [
        {
          "internalType": "address",
          "name": "",
          "type": "address"
        }
      ],
      "name": "donatedValue",
      "outputs": [
        {
          "internalType": "uint256",
          "name": "",
          "type": "uint256"
        }
      ],
      "stateMutability": "view",
      "type": "function"
    },
    {
      "inputs": [
        {
          "internalType": "uint256",
          "name": "",
          "type": "uint256"
        }
      ],
      "name": "donations",
      "outputs": [
        {
          "internalType": "uint256",
          "name": "",
          "type": "uint256"
        }
      ],
      "stateMutability": "view",
      "type": "function"
    },
    {
      "inputs": [],
      "name": "donatursCount",
      "outputs": [
        {
          "internalType": "uint256",
          "name": "",
          "type": "uint256"
        }
      ],
      "stateMutability": "view",
      "type": "function"
    },
    {
      "inputs": [
        {
          "internalType": "address",
          "name": "",
          "type": "address"
        }
      ],
      "name": "donors",
      "outputs": [
        {
          "internalType": "bool",
          "name": "",
          "type": "bool"
        }
      ],
      "stateMutability": "view",
      "type": "function"
    },
    {
      "inputs": [
        {
          "internalType": "string",
          "name": "_title",
          "type": "string"
        },
        {
          "internalType": "string",
          "name": "_url",
          "type": "string"
        },
        {
          "internalType": "uint256",
          "name": "_minimum",
          "type": "uint256"
        }
      ],
      "name": "editCampaign",
      "outputs": [],
      "stateMutability": "nonpayable",
      "type": "function"
    },
    {
      "inputs": [],
      "name": "endCampaign",
      "outputs": [],
      "stateMutability": "nonpayable",
      "type": "function"
    },
    {
      "inputs": [
        {
          "internalType": "uint256",
          "name": "index",
          "type": "uint256"
        }
      ],
      "name": "finalizeWd",
      "outputs": [],
      "stateMutability": "nonpayable",
      "type": "function"
    },
    {
      "inputs": [],
      "name": "getCampaign",
      "outputs": [
        {
          "internalType": "string",
          "name": "",
          "type": "string"
        },
        {
          "internalType": "string",
          "name": "",
          "type": "string"
        },
        {
          "internalType": "string[]",
          "name": "",
          "type": "string[]"
        },
        {
          "internalType": "uint256",
          "name": "",
          "type": "uint256"
        },
        {
          "internalType": "uint256",
          "name": "",
          "type": "uint256"
        },
        {
          "internalType": "address",
          "name": "",
          "type": "address"
        },
        {
          "internalType": "uint256",
          "name": "",
          "type": "uint256"
        },
        {
          "internalType": "string",
          "name": "",
          "type": "string"
        },
        {
          "internalType": "uint256",
          "name": "",
          "type": "uint256"
        },
        {
          "internalType": "uint256",
          "name": "",
          "type": "uint256"
        },
        {
          "internalType": "uint256",
          "name": "",
          "type": "uint256"
        },
        {
          "internalType": "uint256",
          "name": "",
          "type": "uint256"
        }
      ],
      "stateMutability": "view",
      "type": "function"
    },
    {
      "inputs": [],
      "name": "getDetailed",
      "outputs": [
        {
          "internalType": "uint256",
          "name": "",
          "type": "uint256"
        },
        {
          "internalType": "uint256",
          "name": "",
          "type": "uint256"
        },
        {
          "internalType": "address[]",
          "name": "",
          "type": "address[]"
        },
        {
          "internalType": "uint256[]",
          "name": "",
          "type": "uint256[]"
        },
        {
          "internalType": "uint256",
          "name": "",
          "type": "uint256"
        },
        {
          "internalType": "uint256[]",
          "name": "",
          "type": "uint256[]"
        }
      ],
      "stateMutability": "view",
      "type": "function"
    },
    {
      "inputs": [],
      "name": "getRequestWithdrawl",
      "outputs": [
        {
          "components": [
            {
              "internalType": "string",
              "name": "description",
              "type": "string"
            },
            {
              "internalType": "uint256",
              "name": "value",
              "type": "uint256"
            },
            {
              "internalType": "address payable",
              "name": "recipient",
              "type": "address"
            },
            {
              "internalType": "bool",
              "name": "complete",
              "type": "bool"
            },
            {
              "internalType": "uint256",
              "name": "createTimestamp",
              "type": "uint256"
            },
            {
              "internalType": "uint256",
              "name": "completedTimestamp",
              "type": "uint256"
            },
            {
              "internalType": "uint256",
              "name": "approvalsCount",
              "type": "uint256"
            }
          ],
          "internalType": "struct Campaign.WithdrawlStruct[]",
          "name": "",
          "type": "tuple[]"
        }
      ],
      "stateMutability": "view",
      "type": "function"
    },
    {
      "inputs": [],
      "name": "refundDonate",
      "outputs": [],
      "stateMutability": "nonpayable",
      "type": "function"
    },
    {
      "inputs": [],
      "name": "rejectCampaign",
      "outputs": [],
      "stateMutability": "nonpayable",
      "type": "function"
    },
    {
      "inputs": [],
      "name": "reportCampaign",
      "outputs": [],
      "stateMutability": "nonpayable",
      "type": "function"
    },
    {
      "inputs": [
        {
          "internalType": "address",
          "name": "",
          "type": "address"
        }
      ],
      "name": "reported",
      "outputs": [
        {
          "internalType": "bool",
          "name": "",
          "type": "bool"
        }
      ],
      "stateMutability": "view",
      "type": "function"
    },
    {
      "inputs": [
        {
          "internalType": "string",
          "name": "description",
          "type": "string"
        },
        {
          "internalType": "address payable",
          "name": "recipient",
          "type": "address"
        },
        {
          "internalType": "uint256",
          "name": "wdValue",
          "type": "uint256"
        }
      ],
      "name": "urgentWd",
      "outputs": [],
      "stateMutability": "nonpayable",
      "type": "function"
    },
    {
      "inputs": [
        {
          "internalType": "address",
          "name": "",
          "type": "address"
        }
      ],
      "name": "voter",
      "outputs": [
        {
          "internalType": "bool",
          "name": "",
          "type": "bool"
        }
      ],
      "stateMutability": "view",
      "type": "function"
    },
    {
      "inputs": [],
      "name": "voterCount",
      "outputs": [
        {
          "internalType": "uint256",
          "name": "",
          "type": "uint256"
        }
      ],
      "stateMutability": "view",
      "type": "function"
    },
    {
      "inputs": [
        {
          "internalType": "uint256",
          "name": "",
          "type": "uint256"
        }
      ],
      "name": "withdrawls",
      "outputs": [
        {
          "internalType": "string",
          "name": "description",
          "type": "string"
        },
        {
          "internalType": "uint256",
          "name": "value",
          "type": "uint256"
        },
        {
          "internalType": "address payable",
          "name": "recipient",
          "type": "address"
        },
        {
          "internalType": "bool",
          "name": "complete",
          "type": "bool"
        },
        {
          "internalType": "uint256",
          "name": "createTimestamp",
          "type": "uint256"
        },
        {
          "internalType": "uint256",
          "name": "completedTimestamp",
          "type": "uint256"
        },
        {
          "internalType": "uint256",
          "name": "approvalsCount",
          "type": "uint256"
        }
      ],
      "stateMutability": "view",
      "type": "function"
    }
  ],
  "bytecode": "0x60806040523480156200001157600080fd5b5060405162003d2638038062003d2683398181016040528101906200003791906200036b565b8a600c8190555089600d90816200004f919062000735565b5088600e908162000061919062000735565b50600f8890806001815401808255809150506001900390600052602060002001600090919091909150908162000098919062000735565b50866010819055508560118190555084601260006101000a81548173ffffffffffffffffffffffffffffffffffffffff021916908373ffffffffffffffffffffffffffffffffffffffff1602179055508360138190555082601481905550816015908162000107919062000735565b508060168190555060006005819055506000600781905550600060088190555050505050505050505050506200081c565b6000604051905090565b600080fd5b600080fd5b6000819050919050565b62000161816200014c565b81146200016d57600080fd5b50565b600081519050620001818162000156565b92915050565b600080fd5b600080fd5b6000601f19601f8301169050919050565b7f4e487b7100000000000000000000000000000000000000000000000000000000600052604160045260246000fd5b620001dc8262000191565b810181811067ffffffffffffffff82111715620001fe57620001fd620001a2565b5b80604052505050565b60006200021362000138565b9050620002218282620001d1565b919050565b600067ffffffffffffffff821115620002445762000243620001a2565b5b6200024f8262000191565b9050602081019050919050565b60005b838110156200027c5780820151818401526020810190506200025f565b60008484015250505050565b60006200029f620002998462000226565b62000207565b905082815260208101848484011115620002be57620002bd6200018c565b5b620002cb8482856200025c565b509392505050565b600082601f830112620002eb57620002ea62000187565b5b8151620002fd84826020860162000288565b91505092915050565b600073ffffffffffffffffffffffffffffffffffffffff82169050919050565b6000620003338262000306565b9050919050565b620003458162000326565b81146200035157600080fd5b50565b60008151905062000365816200033a565b92915050565b60008060008060008060008060008060006101608c8e03121562000394576200039362000142565b5b6000620003a48e828f0162000170565b9b505060208c015167ffffffffffffffff811115620003c857620003c762000147565b5b620003d68e828f01620002d3565b9a505060408c015167ffffffffffffffff811115620003fa57620003f962000147565b5b620004088e828f01620002d3565b99505060608c015167ffffffffffffffff8111156200042c576200042b62000147565b5b6200043a8e828f01620002d3565b98505060806200044d8e828f0162000170565b97505060a0620004608e828f0162000170565b96505060c0620004738e828f0162000354565b95505060e0620004868e828f0162000170565b9450506101006200049a8e828f0162000170565b9350506101208c015167ffffffffffffffff811115620004bf57620004be62000147565b5b620004cd8e828f01620002d3565b925050610140620004e18e828f0162000170565b9150509295989b509295989b9093969950565b600081519050919050565b7f4e487b7100000000000000000000000000000000000000000000000000000000600052602260045260246000fd5b600060028204905060018216806200054757607f821691505b6020821081036200055d576200055c620004ff565b5b50919050565b60008190508160005260206000209050919050565b60006020601f8301049050919050565b600082821b905092915050565b600060088302620005c77fffffffffffffffffffffffffffffffffffffffffffffffffffffffffffffffff8262000588565b620005d3868362000588565b95508019841693508086168417925050509392505050565b6000819050919050565b600062000616620006106200060a846200014c565b620005eb565b6200014c565b9050919050565b6000819050919050565b6200063283620005f5565b6200064a62000641826200061d565b84845462000595565b825550505050565b600090565b6200066162000652565b6200066e81848462000627565b505050565b5b8181101562000696576200068a60008262000657565b60018101905062000674565b5050565b601f821115620006e557620006af8162000563565b620006ba8462000578565b81016020851015620006ca578190505b620006e2620006d98562000578565b83018262000673565b50505b505050565b600082821c905092915050565b60006200070a60001984600802620006ea565b1980831691505092915050565b6000620007258383620006f7565b9150826002028217905092915050565b6200074082620004f4565b67ffffffffffffffff8111156200075c576200075b620001a2565b5b6200076882546200052e565b620007758282856200069a565b600060209050601f831160018114620007ad576000841562000798578287015190505b620007a4858262000717565b86555062000814565b601f198416620007bd8662000563565b60005b82811015620007e757848901518255600182019150602085019450602081019050620007c0565b8683101562000807578489015162000803601f891682620006f7565b8355505b6001600288020188555050505b505050505050565b6134fa806200082c6000396000f3fe6080604052600436106101b75760003560e01c806364256611116100ec578063b2136ff41161008a578063d7bb99ba11610064578063d7bb99ba146105e3578063f8626af8146105ed578063fc4a47fd1461062a578063ffabc6731461065a576101b7565b8063b2136ff41461053e578063ca0cdea814610569578063d2fea16b146105a6576101b7565b806371aac7f9116100c657806371aac7f91461047e578063844db45014610495578063ac687cc4146104be578063af0dbe5414610501576101b7565b806364256611146104255780636c0ddc1214610450578063705f33d614610467576101b7565b8063351ebb29116101595780633cb5d100116101335780633cb5d100146103555780633eaa91f51461039257806342169e48146103cf5780634eceeff8146103fa576101b7565b8063351ebb29146102d85780633a9eec5c146103035780633c4ba3f61461032c576101b7565b80631cbe2006116101955780631cbe200614610237578063236b8e3a146102745780633166e9c0146102aa57806333831f6f146102c1576101b7565b80630f8ca5ca146101bc57806311a36c43146101e557806314e420c51461020e575b600080fd5b3480156101c857600080fd5b506101e360048036038101906101de91906120e6565b610697565b005b3480156101f157600080fd5b5061020c600480360381019061020791906122b7565b610893565b005b34801561021a57600080fd5b5061023560048036038101906102309190612326565b610b02565b005b34801561024357600080fd5b5061025e600480360381019061025991906123ef565b610b2e565b60405161026b919061242b565b60405180910390f35b34801561028057600080fd5b50610289610b46565b6040516102a19c9b9a999897969594939291906125e0565b60405180910390f35b3480156102b657600080fd5b506102bf610e36565b005b3480156102cd57600080fd5b506102d6610e40565b005b3480156102e457600080fd5b506102ed61112d565b6040516102fa919061242b565b60405180910390f35b34801561030f57600080fd5b5061032a600480360381019061032591906126b6565b611133565b005b34801561033857600080fd5b50610353600480360381019061034e91906120e6565b611288565b005b34801561036157600080fd5b5061037c600480360381019061037791906120e6565b6114c4565b6040516103899190612725565b60405180910390f35b34801561039e57600080fd5b506103b960048036038101906103b491906123ef565b611503565b6040516103c6919061275b565b60405180910390f35b3480156103db57600080fd5b506103e4611523565b6040516103f1919061242b565b60405180910390f35b34801561040657600080fd5b5061040f611529565b60405161041c9190612901565b60405180910390f35b34801561043157600080fd5b5061043a6116b3565b604051610447919061242b565b60405180910390f35b34801561045c57600080fd5b506104656116b9565b005b34801561047357600080fd5b5061047c611843565b005b34801561048a57600080fd5b5061049361184d565b005b3480156104a157600080fd5b506104bc60048036038101906104b791906120e6565b611857565b005b3480156104ca57600080fd5b506104e560048036038101906104e091906120e6565b611a92565b6040516104f89796959493929190612932565b60405180910390f35b34801561050d57600080fd5b50610528600480360381019061052391906123ef565b611b99565b604051610535919061275b565b60405180910390f35b34801561054a57600080fd5b50610553611bb9565b604051610560919061242b565b60405180910390f35b34801561057557600080fd5b50610590600480360381019061058b91906123ef565b611bbf565b60405161059d919061275b565b60405180910390f35b3480156105b257600080fd5b506105cd60048036038101906105c891906120e6565b611bdf565b6040516105da919061242b565b60405180910390f35b6105eb611c03565b005b3480156105f957600080fd5b50610614600480360381019061060f91906120e6565b611ef0565b604051610621919061242b565b60405180910390f35b34801561063657600080fd5b5061063f611f14565b60405161065196959493929190612b15565b60405180910390f35b34801561066657600080fd5b50610681600480360381019061067c9190612b8b565b61206d565b60405161068e919061275b565b60405180910390f35b601260009054906101000a900473ffffffffffffffffffffffffffffffffffffffff1673ffffffffffffffffffffffffffffffffffffffff163373ffffffffffffffffffffffffffffffffffffffff16146106f157600080fd5b60016008541461070057600080fd5b60006018828154811061071657610715612bcb565b5b9060005260206000209060060201905060026004546107359190612c58565b8160050154101561077b576040517f08c379a000000000000000000000000000000000000000000000000000000000815260040161077290612cd5565b60405180910390fd5b8060020160149054906101000a900460ff16156107cd576040517f08c379a00000000000000000000000000000000000000000000000000000000081526004016107c490612d67565b60405180910390fd5b60008160020160009054906101000a900473ffffffffffffffffffffffffffffffffffffffff1673ffffffffffffffffffffffffffffffffffffffff16826001015460405161081b90612db8565b60006040518083038185875af1925050503d8060008114610858576040519150601f19603f3d011682016040523d82523d6000602084013e61085d565b606091505b50509050801561088e5760018260020160146101000a81548160ff0219169083151502179055504282600401819055505b505050565b601260009054906101000a900473ffffffffffffffffffffffffffffffffffffffff1673ffffffffffffffffffffffffffffffffffffffff163373ffffffffffffffffffffffffffffffffffffffff16146108ed57600080fd5b6001600854146108fc57600080fd5b600060186001816001815401808255809150500390600052602060002090600602019050600160145414610965576040517f08c379a000000000000000000000000000000000000000000000000000000000815260040161095c90612e3f565b60405180910390fd5b8060020160149054906101000a900460ff16156109b7576040517f08c379a00000000000000000000000000000000000000000000000000000000081526004016109ae90612d67565b60405180910390fd5b478211156109fa576040517f08c379a00000000000000000000000000000000000000000000000000000000081526004016109f190612eab565b60405180910390fd5b60008373ffffffffffffffffffffffffffffffffffffffff1683604051610a2090612db8565b60006040518083038185875af1925050503d8060008114610a5d576040519150601f19603f3d011682016040523d82523d6000602084013e610a62565b606091505b505090508015610afb5784826000019081610a7d91906130d7565b50828260010181905550838260020160006101000a81548173ffffffffffffffffffffffffffffffffffffffff021916908373ffffffffffffffffffffffffffffffffffffffff1602179055504282600401819055506000826005018190555060018260020160146101000a81548160ff0219169083151502179055505b5050505050565b82600d9081610b1191906130d7565b5081600e9081610b2191906130d7565b5080601681905550505050565b60036020528060005260406000206000915090505481565b60608060606000806000806060600080600080600d600e600f601054600754601260009054906101000a900473ffffffffffffffffffffffffffffffffffffffff1660145460156013546005546011546008548b8054610ba590612efa565b80601f0160208091040260200160405190810160405280929190818152602001828054610bd190612efa565b8015610c1e5780601f10610bf357610100808354040283529160200191610c1e565b820191906000526020600020905b815481529060010190602001808311610c0157829003601f168201915b50505050509b508a8054610c3190612efa565b80601f0160208091040260200160405190810160405280929190818152602001828054610c5d90612efa565b8015610caa5780601f10610c7f57610100808354040283529160200191610caa565b820191906000526020600020905b815481529060010190602001808311610c8d57829003601f168201915b50505050509a5089805480602002602001604051908101604052809291908181526020016000905b82821015610d7e578382906000526020600020018054610cf190612efa565b80601f0160208091040260200160405190810160405280929190818152602001828054610d1d90612efa565b8015610d6a5780601f10610d3f57610100808354040283529160200191610d6a565b820191906000526020600020905b815481529060010190602001808311610d4d57829003601f168201915b505050505081526020019060010190610cd2565b505050509950848054610d9090612efa565b80601f0160208091040260200160405190810160405280929190818152602001828054610dbc90612efa565b8015610e095780601f10610dde57610100808354040283529160200191610e09565b820191906000526020600020905b815481529060010190602001808311610dec57829003601f168201915b505050505094509b509b509b509b509b509b509b509b509b509b509b509b50909192939495969798999a9b565b6001600881905550565b60003390506000808273ffffffffffffffffffffffffffffffffffffffff1673ffffffffffffffffffffffffffffffffffffffff16815260200190815260200160002060009054906101000a900460ff16610e9a57600080fd5b6000600360008373ffffffffffffffffffffffffffffffffffffffff1673ffffffffffffffffffffffffffffffffffffffff1681526020019081526020016000205411610ee657600080fd5b6000600360008373ffffffffffffffffffffffffffffffffffffffff1673ffffffffffffffffffffffffffffffffffffffff16815260200190815260200160002054905060008273ffffffffffffffffffffffffffffffffffffffff1682604051610f5090612db8565b60006040518083038185875af1925050503d8060008114610f8d576040519150601f19603f3d011682016040523d82523d6000602084013e610f92565b606091505b5050905080156111285781600754610faa91906131a9565b6007819055506000600360008573ffffffffffffffffffffffffffffffffffffffff1673ffffffffffffffffffffffffffffffffffffffff1681526020019081526020016000208190555060008060008573ffffffffffffffffffffffffffffffffffffffff1673ffffffffffffffffffffffffffffffffffffffff16815260200190815260200160002060006101000a81548160ff0219169083151502179055506005600081548092919061105f906131dd565b9190505550600160008473ffffffffffffffffffffffffffffffffffffffff1673ffffffffffffffffffffffffffffffffffffffff16815260200190815260200160002060009054906101000a900460ff161561112757600460008154809291906110c9906131dd565b91905055506000600160008573ffffffffffffffffffffffffffffffffffffffff1673ffffffffffffffffffffffffffffffffffffffff16815260200190815260200160002060006101000a81548160ff0219169083151502179055505b5b505050565b60065481565b601260009054906101000a900473ffffffffffffffffffffffffffffffffffffffff1673ffffffffffffffffffffffffffffffffffffffff163373ffffffffffffffffffffffffffffffffffffffff161461118d57600080fd5b478211156111d0576040517f08c379a00000000000000000000000000000000000000000000000000000000081526004016111c790613278565b60405180910390fd5b6000601860018160018154018082558091505003906000526020600020906006020190508381600001908161120591906130d7565b50828160010181905550818160020160006101000a81548173ffffffffffffffffffffffffffffffffffffffff021916908373ffffffffffffffffffffffffffffffffffffffff16021790555060008160020160146101000a81548160ff0219169083151502179055504281600301819055506000816005018190555050505050565b600160003373ffffffffffffffffffffffffffffffffffffffff1673ffffffffffffffffffffffffffffffffffffffff16815260200190815260200160002060009054906101000a900460ff166112de57600080fd5b6001600854146112ed57600080fd5b60006018828154811061130357611302612bcb565b5b90600052602060002090600602019050600160003373ffffffffffffffffffffffffffffffffffffffff1673ffffffffffffffffffffffffffffffffffffffff16815260200190815260200160002060009054906101000a900460ff1661139f576040517f08c379a0000000000000000000000000000000000000000000000000000000008152600401611396906132e4565b60405180910390fd5b601760003373ffffffffffffffffffffffffffffffffffffffff1673ffffffffffffffffffffffffffffffffffffffff168152602001908152602001600020600083815260200190815260200160002060009054906101000a900460ff161561143d576040517f08c379a000000000000000000000000000000000000000000000000000000000815260040161143490613350565b60405180910390fd5b6001601760003373ffffffffffffffffffffffffffffffffffffffff1673ffffffffffffffffffffffffffffffffffffffff168152602001908152602001600020600084815260200190815260200160002060006101000a81548160ff0219169083151502179055508060050160008154809291906114bb90613370565b91905055505050565b600981815481106114d457600080fd5b906000526020600020016000915054906101000a900473ffffffffffffffffffffffffffffffffffffffff1681565b60026020528060005260406000206000915054906101000a900460ff1681565b60045481565b60606018805480602002602001604051908101604052809291908181526020016000905b828210156116aa57838290600052602060002090600602016040518060e001604052908160008201805461158090612efa565b80601f01602080910402602001604051908101604052809291908181526020018280546115ac90612efa565b80156115f95780601f106115ce576101008083540402835291602001916115f9565b820191906000526020600020905b8154815290600101906020018083116115dc57829003601f168201915b50505050508152602001600182015481526020016002820160009054906101000a900473ffffffffffffffffffffffffffffffffffffffff1673ffffffffffffffffffffffffffffffffffffffff1673ffffffffffffffffffffffffffffffffffffffff1681526020016002820160149054906101000a900460ff1615151515815260200160038201548152602001600482015481526020016005820154815250508152602001906001019061154d565b50505050905090565b60075481565b60001515600260003373ffffffffffffffffffffffffffffffffffffffff1673ffffffffffffffffffffffffffffffffffffffff16815260200190815260200160002060009054906101000a900460ff1615151461174c576040517f08c379a000000000000000000000000000000000000000000000000000000000815260040161174390613404565b60405180910390fd5b6000803373ffffffffffffffffffffffffffffffffffffffff1673ffffffffffffffffffffffffffffffffffffffff16815260200190815260200160002060009054906101000a900460ff166117a157600080fd5b600660008154809291906117b490613370565b91905055506001600260003373ffffffffffffffffffffffffffffffffffffffff1673ffffffffffffffffffffffffffffffffffffffff16815260200190815260200160002060006101000a81548160ff02191690831515021790555060026005546118209190612c58565b6006541180156118335750600360055410155b156118415760046008819055505b565b6002600881905550565b6003600881905550565b600160003373ffffffffffffffffffffffffffffffffffffffff1673ffffffffffffffffffffffffffffffffffffffff16815260200190815260200160002060009054906101000a900460ff166118ad57600080fd5b6001600854146118bc57600080fd5b6000601882815481106118d2576118d1612bcb565b5b90600052602060002090600602019050600160003373ffffffffffffffffffffffffffffffffffffffff1673ffffffffffffffffffffffffffffffffffffffff16815260200190815260200160002060009054906101000a900460ff1661196e576040517f08c379a0000000000000000000000000000000000000000000000000000000008152600401611965906132e4565b60405180910390fd5b601760003373ffffffffffffffffffffffffffffffffffffffff1673ffffffffffffffffffffffffffffffffffffffff168152602001908152602001600020600083815260200190815260200160002060009054906101000a900460ff16611a0b576040517f08c379a0000000000000000000000000000000000000000000000000000000008152600401611a0290613470565b60405180910390fd5b6000601760003373ffffffffffffffffffffffffffffffffffffffff1673ffffffffffffffffffffffffffffffffffffffff168152602001908152602001600020600084815260200190815260200160002060006101000a81548160ff021916908315150217905550806005016000815480929190611a89906131dd565b91905055505050565b60188181548110611aa257600080fd5b9060005260206000209060060201600091509050806000018054611ac590612efa565b80601f0160208091040260200160405190810160405280929190818152602001828054611af190612efa565b8015611b3e5780601f10611b1357610100808354040283529160200191611b3e565b820191906000526020600020905b815481529060010190602001808311611b2157829003601f168201915b5050505050908060010154908060020160009054906101000a900473ffffffffffffffffffffffffffffffffffffffff16908060020160149054906101000a900460ff16908060030154908060040154908060050154905087565b60016020528060005260406000206000915054906101000a900460ff1681565b60055481565b60006020528060005260406000206000915054906101000a900460ff1681565b600b8181548110611bef57600080fd5b906000526020600020016000915090505481565b600160085414611c1257600080fd5b60003490506009339080600181540180825580915050600190039060005260206000200160009091909190916101000a81548173ffffffffffffffffffffffffffffffffffffffff021916908373ffffffffffffffffffffffffffffffffffffffff160217905550600a819080600181540180825580915050600190039060005260206000200160009091909190915055600b42908060018154018082558091505060019003906000526020600020016000909190919091505580600754611cda9190613490565b60078190555034600360003373ffffffffffffffffffffffffffffffffffffffff1673ffffffffffffffffffffffffffffffffffffffff16815260200190815260200160002054611d2b9190613490565b600360003373ffffffffffffffffffffffffffffffffffffffff1673ffffffffffffffffffffffffffffffffffffffff1681526020019081526020016000208190555060016000803373ffffffffffffffffffffffffffffffffffffffff1673ffffffffffffffffffffffffffffffffffffffff16815260200190815260200160002060006101000a81548160ff02191690831515021790555060056000815480929190611dd890613370565b9190505550601654600360003373ffffffffffffffffffffffffffffffffffffffff1673ffffffffffffffffffffffffffffffffffffffff1681526020019081526020016000205410158015611e785750600160003373ffffffffffffffffffffffffffffffffffffffff1673ffffffffffffffffffffffffffffffffffffffff16815260200190815260200160002060009054906101000a900460ff16155b15611eed5760018060003373ffffffffffffffffffffffffffffffffffffffff1673ffffffffffffffffffffffffffffffffffffffff16815260200190815260200160002060006101000a81548160ff02191690831515021790555060046000815480929190611ee790613370565b91905055505b50565b600a8181548110611f0057600080fd5b906000526020600020016000915090505481565b600080606080600060606004546006546009600a601654600b83805480602002602001604051908101604052809291908181526020018280548015611fae57602002820191906000526020600020905b8160009054906101000a900473ffffffffffffffffffffffffffffffffffffffff1673ffffffffffffffffffffffffffffffffffffffff1681526020019060010190808311611f64575b505050505093508280548060200260200160405190810160405280929190818152602001828054801561200057602002820191906000526020600020905b815481526020019060010190808311611fec575b505050505092508080548060200260200160405190810160405280929190818152602001828054801561205257602002820191906000526020600020905b81548152602001906001019080831161203e575b50505050509050955095509550955095509550909192939495565b60176020528160005260406000206020528060005260406000206000915091509054906101000a900460ff1681565b6000604051905090565b600080fd5b600080fd5b6000819050919050565b6120c3816120b0565b81146120ce57600080fd5b50565b6000813590506120e0816120ba565b92915050565b6000602082840312156120fc576120fb6120a6565b5b600061210a848285016120d1565b91505092915050565b600080fd5b600080fd5b6000601f19601f8301169050919050565b7f4e487b7100000000000000000000000000000000000000000000000000000000600052604160045260246000fd5b6121668261211d565b810181811067ffffffffffffffff821117156121855761218461212e565b5b80604052505050565b600061219861209c565b90506121a4828261215d565b919050565b600067ffffffffffffffff8211156121c4576121c361212e565b5b6121cd8261211d565b9050602081019050919050565b82818337600083830152505050565b60006121fc6121f7846121a9565b61218e565b90508281526020810184848401111561221857612217612118565b5b6122238482856121da565b509392505050565b600082601f8301126122405761223f612113565b5b81356122508482602086016121e9565b91505092915050565b600073ffffffffffffffffffffffffffffffffffffffff82169050919050565b600061228482612259565b9050919050565b61229481612279565b811461229f57600080fd5b50565b6000813590506122b18161228b565b92915050565b6000806000606084860312156122d0576122cf6120a6565b5b600084013567ffffffffffffffff8111156122ee576122ed6120ab565b5b6122fa8682870161222b565b935050602061230b868287016122a2565b925050604061231c868287016120d1565b9150509250925092565b60008060006060848603121561233f5761233e6120a6565b5b600084013567ffffffffffffffff81111561235d5761235c6120ab565b5b6123698682870161222b565b935050602084013567ffffffffffffffff81111561238a576123896120ab565b5b6123968682870161222b565b92505060406123a7868287016120d1565b9150509250925092565b60006123bc82612259565b9050919050565b6123cc816123b1565b81146123d757600080fd5b50565b6000813590506123e9816123c3565b92915050565b600060208284031215612405576124046120a6565b5b6000612413848285016123da565b91505092915050565b612425816120b0565b82525050565b6000602082019050612440600083018461241c565b92915050565b600081519050919050565b600082825260208201905092915050565b60005b83811015612480578082015181840152602081019050612465565b60008484015250505050565b600061249782612446565b6124a18185612451565b93506124b1818560208601612462565b6124ba8161211d565b840191505092915050565b600081519050919050565b600082825260208201905092915050565b6000819050602082019050919050565b600082825260208201905092915050565b600061250d82612446565b61251781856124f1565b9350612527818560208601612462565b6125308161211d565b840191505092915050565b60006125478383612502565b905092915050565b6000602082019050919050565b6000612567826124c5565b61257181856124d0565b935083602082028501612583856124e1565b8060005b858110156125bf57848403895281516125a0858261253b565b94506125ab8361254f565b925060208a01995050600181019050612587565b50829750879550505050505092915050565b6125da816123b1565b82525050565b60006101808201905081810360008301526125fb818f61248c565b9050818103602083015261260f818e61248c565b90508181036040830152612623818d61255c565b9050612632606083018c61241c565b61263f608083018b61241c565b61264c60a083018a6125d1565b61265960c083018961241c565b81810360e083015261266b818861248c565b905061267b61010083018761241c565b61268961012083018661241c565b61269761014083018561241c565b6126a561016083018461241c565b9d9c50505050505050505050505050565b6000806000606084860312156126cf576126ce6120a6565b5b600084013567ffffffffffffffff8111156126ed576126ec6120ab565b5b6126f98682870161222b565b935050602061270a868287016120d1565b925050604061271b868287016122a2565b9150509250925092565b600060208201905061273a60008301846125d1565b92915050565b60008115159050919050565b61275581612740565b82525050565b6000602082019050612770600083018461274c565b92915050565b600081519050919050565b600082825260208201905092915050565b6000819050602082019050919050565b6127ab816120b0565b82525050565b6127ba81612279565b82525050565b6127c981612740565b82525050565b600060e08301600083015184820360008601526127ec8282612502565b915050602083015161280160208601826127a2565b50604083015161281460408601826127b1565b50606083015161282760608601826127c0565b50608083015161283a60808601826127a2565b5060a083015161284d60a08601826127a2565b5060c083015161286060c08601826127a2565b508091505092915050565b600061287783836127cf565b905092915050565b6000602082019050919050565b600061289782612776565b6128a18185612781565b9350836020820285016128b385612792565b8060005b858110156128ef57848403895281516128d0858261286b565b94506128db8361287f565b925060208a019950506001810190506128b7565b50829750879550505050505092915050565b6000602082019050818103600083015261291b818461288c565b905092915050565b61292c81612279565b82525050565b600060e082019050818103600083015261294c818a61248c565b905061295b602083018961241c565b6129686040830188612923565b612975606083018761274c565b612982608083018661241c565b61298f60a083018561241c565b61299c60c083018461241c565b98975050505050505050565b600081519050919050565b600082825260208201905092915050565b6000819050602082019050919050565b6129dd816123b1565b82525050565b60006129ef83836129d4565b60208301905092915050565b6000602082019050919050565b6000612a13826129a8565b612a1d81856129b3565b9350612a28836129c4565b8060005b83811015612a59578151612a4088826129e3565b9750612a4b836129fb565b925050600181019050612a2c565b5085935050505092915050565b600081519050919050565b600082825260208201905092915050565b6000819050602082019050919050565b6000612a9e83836127a2565b60208301905092915050565b6000602082019050919050565b6000612ac282612a66565b612acc8185612a71565b9350612ad783612a82565b8060005b83811015612b08578151612aef8882612a92565b9750612afa83612aaa565b925050600181019050612adb565b5085935050505092915050565b600060c082019050612b2a600083018961241c565b612b37602083018861241c565b8181036040830152612b498187612a08565b90508181036060830152612b5d8186612ab7565b9050612b6c608083018561241c565b81810360a0830152612b7e8184612ab7565b9050979650505050505050565b60008060408385031215612ba257612ba16120a6565b5b6000612bb0858286016123da565b9250506020612bc1858286016120d1565b9150509250929050565b7f4e487b7100000000000000000000000000000000000000000000000000000000600052603260045260246000fd5b7f4e487b7100000000000000000000000000000000000000000000000000000000600052601260045260246000fd5b7f4e487b7100000000000000000000000000000000000000000000000000000000600052601160045260246000fd5b6000612c63826120b0565b9150612c6e836120b0565b925082612c7e57612c7d612bfa565b5b828204905092915050565b7f417070726f76616c20686173206e6f7420657863656564656420353025000000600082015250565b6000612cbf601d83612451565b9150612cca82612c89565b602082019050919050565b60006020820190508181036000830152612cee81612cb2565b9050919050565b7f54686973207769746864726177616c20686173206265656e20636f6d706c657460008201527f6564000000000000000000000000000000000000000000000000000000000000602082015250565b6000612d51602283612451565b9150612d5c82612cf5565b604082019050919050565b60006020820190508181036000830152612d8081612d44565b9050919050565b600081905092915050565b50565b6000612da2600083612d87565b9150612dad82612d92565b600082019050919050565b6000612dc382612d95565b9150819050919050565b7f546869732074797065206f662063616d706169676e206973206e6f742075726760008201527f656e740000000000000000000000000000000000000000000000000000000000602082015250565b6000612e29602383612451565b9150612e3482612dcd565b604082019050919050565b60006020820190508181036000830152612e5881612e1c565b9050919050565b7f4e6f7420656e6f75676820616d6f756e74000000000000000000000000000000600082015250565b6000612e95601183612451565b9150612ea082612e5f565b602082019050919050565b60006020820190508181036000830152612ec481612e88565b9050919050565b7f4e487b7100000000000000000000000000000000000000000000000000000000600052602260045260246000fd5b60006002820490506001821680612f1257607f821691505b602082108103612f2557612f24612ecb565b5b50919050565b60008190508160005260206000209050919050565b60006020601f8301049050919050565b600082821b905092915050565b600060088302612f8d7fffffffffffffffffffffffffffffffffffffffffffffffffffffffffffffffff82612f50565b612f978683612f50565b95508019841693508086168417925050509392505050565b6000819050919050565b6000612fd4612fcf612fca846120b0565b612faf565b6120b0565b9050919050565b6000819050919050565b612fee83612fb9565b613002612ffa82612fdb565b848454612f5d565b825550505050565b600090565b61301761300a565b613022818484612fe5565b505050565b5b818110156130465761303b60008261300f565b600181019050613028565b5050565b601f82111561308b5761305c81612f2b565b61306584612f40565b81016020851015613074578190505b61308861308085612f40565b830182613027565b50505b505050565b600082821c905092915050565b60006130ae60001984600802613090565b1980831691505092915050565b60006130c7838361309d565b9150826002028217905092915050565b6130e082612446565b67ffffffffffffffff8111156130f9576130f861212e565b5b6131038254612efa565b61310e82828561304a565b600060209050601f831160018114613141576000841561312f578287015190505b61313985826130bb565b8655506131a1565b601f19841661314f86612f2b565b60005b8281101561317757848901518255600182019150602085019450602081019050613152565b868310156131945784890151613190601f89168261309d565b8355505b6001600288020188555050505b505050505050565b60006131b4826120b0565b91506131bf836120b0565b92508282039050818111156131d7576131d6612c29565b5b92915050565b60006131e8826120b0565b9150600082036131fb576131fa612c29565b5b600182039050919050565b7f54686520646573697265642066756e647320617265206e6f742073756666696360008201527f69656e7420746f206d616b652061207769746864726177616c00000000000000602082015250565b6000613262603983612451565b915061326d82613206565b604082019050919050565b6000602082019050818103600083015261329181613255565b9050919050565b7f416464726573732063616e277420766f74650000000000000000000000000000600082015250565b60006132ce601283612451565b91506132d982613298565b602082019050919050565b600060208201905081810360008301526132fd816132c1565b9050919050565b7f5573657220616c726561647920766f7465642100000000000000000000000000600082015250565b600061333a601383612451565b915061334582613304565b602082019050919050565b600060208201905081810360008301526133698161332d565b9050919050565b600061337b826120b0565b91507fffffffffffffffffffffffffffffffffffffffffffffffffffffffffffffffff82036133ad576133ac612c29565b5b600182019050919050565b7f616c726561647920766f74650000000000000000000000000000000000000000600082015250565b60006133ee600c83612451565b91506133f9826133b8565b602082019050919050565b6000602082019050818103600083015261341d816133e1565b9050919050565b7f55736572206e6f7420766f746520796574000000000000000000000000000000600082015250565b600061345a601183612451565b915061346582613424565b602082019050919050565b600060208201905081810360008301526134898161344d565b9050919050565b600061349b826120b0565b91506134a6836120b0565b92508282019050808211156134be576134bd612c29565b5b9291505056fea2646970667358221220f7f81d331f02ebf313c069b69af7641250756b5e332a6c99318623f1930c66cb64736f6c63430008110033",
  "linkReferences": {},
  "deployedLinkReferences": {}
}