{
  "_format": "hh-sol-artifact-1",
  "contractName": "CryptoCareFactory",
  "sourceName": "contracts/CryptoCare.sol",
  "abi": [
    {
      "inputs": [
        {
          "internalType": "address",
          "name": "",
          "type": "address"
        }
      ],
      "name": "admin",
      "outputs": [
        {
          "internalType": "bool",
          "name": "",
          "type": "bool"
        }
      ],
      "stateMutability": "view",
      "type": "function"
    },
    {
      "inputs": [],
      "name": "campaignCount",
      "outputs": [
        {
          "internalType": "uint256",
          "name": "",
          "type": "uint256"
        }
      ],
      "stateMutability": "view",
      "type": "function"
    },
    {
      "inputs": [
        {
          "internalType": "string",
          "name": "_title",
          "type": "string"
        },
        {
          "internalType": "string",
          "name": "_url",
          "type": "string"
        },
        {
          "internalType": "string",
          "name": "_story",
          "type": "string"
        },
        {
          "internalType": "uint256",
          "name": "_duration",
          "type": "uint256"
        },
        {
          "internalType": "uint256",
          "name": "_target",
          "type": "uint256"
        },
        {
          "internalType": "uint256",
          "name": "_tipes",
          "type": "uint256"
        },
        {
          "internalType": "string",
          "name": "_category",
          "type": "string"
        },
        {
          "internalType": "uint256",
          "name": "_minimum",
          "type": "uint256"
        }
      ],
      "name": "createCampaigns",
      "outputs": [],
      "stateMutability": "nonpayable",
      "type": "function"
    },
    {
      "inputs": [
        {
          "internalType": "address",
          "name": "_user",
          "type": "address"
        }
      ],
      "name": "deleteAdmin",
      "outputs": [],
      "stateMutability": "nonpayable",
      "type": "function"
    },
    {
      "inputs": [
        {
          "internalType": "uint256",
          "name": "",
          "type": "uint256"
        }
      ],
      "name": "deployedCampaign",
      "outputs": [
        {
          "internalType": "contract Campaign",
          "name": "",
          "type": "address"
        }
      ],
      "stateMutability": "view",
      "type": "function"
    },
    {
      "inputs": [
        {
          "internalType": "address",
          "name": "_user",
          "type": "address"
        }
      ],
      "name": "getAddress",
      "outputs": [
        {
          "internalType": "bool",
          "name": "",
          "type": "bool"
        },
        {
          "internalType": "string",
          "name": "",
          "type": "string"
        }
      ],
      "stateMutability": "view",
      "type": "function"
    },
    {
      "inputs": [],
      "name": "getCampaigns",
      "outputs": [
        {
          "internalType": "contract Campaign[]",
          "name": "",
          "type": "address[]"
        }
      ],
      "stateMutability": "view",
      "type": "function"
    },
    {
      "inputs": [
        {
          "internalType": "address",
          "name": "",
          "type": "address"
        }
      ],
      "name": "photoUrl",
      "outputs": [
        {
          "internalType": "string",
          "name": "",
          "type": "string"
        }
      ],
      "stateMutability": "view",
      "type": "function"
    },
    {
      "inputs": [
        {
          "internalType": "address",
          "name": "_user",
          "type": "address"
        }
      ],
      "name": "setAddressUnverified",
      "outputs": [],
      "stateMutability": "nonpayable",
      "type": "function"
    },
    {
      "inputs": [
        {
          "internalType": "address",
          "name": "_user",
          "type": "address"
        }
      ],
      "name": "setAddressVerified",
      "outputs": [],
      "stateMutability": "nonpayable",
      "type": "function"
    },
    {
      "inputs": [
        {
          "internalType": "address",
          "name": "_user",
          "type": "address"
        },
        {
          "internalType": "string",
          "name": "_url",
          "type": "string"
        }
      ],
      "name": "setPhoto",
      "outputs": [],
      "stateMutability": "nonpayable",
      "type": "function"
    },
    {
      "inputs": [
        {
          "internalType": "address",
          "name": "_user",
          "type": "address"
        }
      ],
      "name": "setToAdmin",
      "outputs": [],
      "stateMutability": "nonpayable",
      "type": "function"
    },
    {
      "inputs": [
        {
          "internalType": "address",
          "name": "_user",
          "type": "address"
        },
        {
          "internalType": "string",
          "name": "_name",
          "type": "string"
        }
      ],
      "name": "setUsername",
      "outputs": [],
      "stateMutability": "nonpayable",
      "type": "function"
    },
    {
      "inputs": [
        {
          "internalType": "address",
          "name": "",
          "type": "address"
        }
      ],
      "name": "userName",
      "outputs": [
        {
          "internalType": "string",
          "name": "",
          "type": "string"
        }
      ],
      "stateMutability": "view",
      "type": "function"
    },
    {
      "inputs": [
        {
          "internalType": "address",
          "name": "",
          "type": "address"
        }
      ],
      "name": "verifiedAddress",
      "outputs": [
        {
          "internalType": "bool",
          "name": "",
          "type": "bool"
        }
      ],
      "stateMutability": "view",
      "type": "function"
    }
  ],
  "bytecode": "0x608060405234801561001057600080fd5b5061563e806100206000396000f3fe60806040523480156200001157600080fd5b50600436106200010c5760003560e01c806393d4457a11620000a5578063d9ddf5c5116200006f578063d9ddf5c514620002e4578063e20454521462000304578063e6b972f51462000324578063ef8cd822146200035a576200010c565b806393d4457a146200021f578063a6b036331462000255578063ae22c57d1462000277578063b7ccb9ab14620002ae576200010c565b806351f3af1a11620000e757806351f3af1a146200017157806363a846f814620001915780636f4fdada14620001c75780637274e30d14620001fd576200010c565b8063058a4769146200011157806327e1f7df146200013157806336277ecc1462000151575b600080fd5b6200012f600480360381019062000129919062000fa9565b6200037a565b005b6200014f600480360381019062000149919062001153565b620004c0565b005b6200016f600480360381019062000169919062001185565b62000567565b005b6200018f600480360381019062000189919062001153565b62000650565b005b620001af6004803603810190620001a9919062001153565b620006f7565b604051620001be919062001208565b60405180910390f35b620001e56004803603810190620001df919062001153565b62000717565b604051620001f49190620012ae565b60405180910390f35b62000207620007bf565b604051620002169190620012e3565b60405180910390f35b6200023d600480360381019062000237919062001153565b620007c5565b6040516200024c919062001208565b60405180910390f35b6200025f620007e5565b6040516200026e919062001428565b60405180910390f35b6200029560048036038101906200028f919062001153565b62000875565b604051620002a59291906200144c565b60405180910390f35b620002cc6004803603810190620002c6919062001480565b620009a2565b604051620002db9190620014c3565b60405180910390f35b620003026004803603810190620002fc919062001153565b620009e2565b005b6200032260048036038101906200031c919062001185565b62000b1e565b005b6200034260048036038101906200033c919062001153565b62000c07565b604051620003519190620012ae565b60405180910390f35b62000378600480360381019062000372919062001153565b62000caf565b005b6001600460008282546200038f91906200150f565b92505081905550600060045490506000600160003373ffffffffffffffffffffffffffffffffffffffff1673ffffffffffffffffffffffffffffffffffffffff16815260200190815260200160002060009054906101000a900460ff16620003fb5760009050620003ff565b8490505b6000828b8b8b428c338d898d8d6040516200041a9062000dea565b620004309b9a999897969594939291906200155b565b604051809103906000f0801580156200044d573d6000803e3d6000fd5b5090506005819080600181540180825580915050600190039060005260206000200160009091909190916101000a81548173ffffffffffffffffffffffffffffffffffffffff021916908373ffffffffffffffffffffffffffffffffffffffff1602179055505050505050505050505050565b3373ffffffffffffffffffffffffffffffffffffffff1673f872dc10b653f2c5f40acb9bc38e725efafed09273ffffffffffffffffffffffffffffffffffffffff16146200050d57600080fd5b60008060008373ffffffffffffffffffffffffffffffffffffffff1673ffffffffffffffffffffffffffffffffffffffff16815260200190815260200160002060006101000a81548160ff02191690831515021790555050565b60011515600160003373ffffffffffffffffffffffffffffffffffffffff1673ffffffffffffffffffffffffffffffffffffffff16815260200190815260200160002060009054906101000a900460ff16151514620005fd576040517f08c379a0000000000000000000000000000000000000000000000000000000008152600401620005f49062001688565b60405180910390fd5b80600360008473ffffffffffffffffffffffffffffffffffffffff1673ffffffffffffffffffffffffffffffffffffffff16815260200190815260200160002090816200064b9190620018d6565b505050565b3373ffffffffffffffffffffffffffffffffffffffff1673f872dc10b653f2c5f40acb9bc38e725efafed09273ffffffffffffffffffffffffffffffffffffffff16146200069d57600080fd5b60016000808373ffffffffffffffffffffffffffffffffffffffff1673ffffffffffffffffffffffffffffffffffffffff16815260200190815260200160002060006101000a81548160ff02191690831515021790555050565b60006020528060005260406000206000915054906101000a900460ff1681565b600360205280600052604060002060009150905080546200073890620016d9565b80601f01602080910402602001604051908101604052809291908181526020018280546200076690620016d9565b8015620007b75780601f106200078b57610100808354040283529160200191620007b7565b820191906000526020600020905b8154815290600101906020018083116200079957829003601f168201915b505050505081565b60045481565b60016020528060005260406000206000915054906101000a900460ff1681565b606060058054806020026020016040519081016040528092919081815260200182805480156200086b57602002820191906000526020600020905b8160009054906101000a900473ffffffffffffffffffffffffffffffffffffffff1673ffffffffffffffffffffffffffffffffffffffff168152602001906001019080831162000820575b5050505050905090565b60006060600160008473ffffffffffffffffffffffffffffffffffffffff1673ffffffffffffffffffffffffffffffffffffffff16815260200190815260200160002060009054906101000a900460ff16600260008573ffffffffffffffffffffffffffffffffffffffff1673ffffffffffffffffffffffffffffffffffffffff1681526020019081526020016000208080546200091390620016d9565b80601f01602080910402602001604051908101604052809291908181526020018280546200094190620016d9565b8015620009925780601f10620009665761010080835404028352916020019162000992565b820191906000526020600020905b8154815290600101906020018083116200097457829003601f168201915b5050505050905091509150915091565b60058181548110620009b357600080fd5b906000526020600020016000915054906101000a900473ffffffffffffffffffffffffffffffffffffffff1681565b600115156000803373ffffffffffffffffffffffffffffffffffffffff1673ffffffffffffffffffffffffffffffffffffffff16815260200190815260200160002060009054906101000a900460ff1615151462000a3f57600080fd5b6000600160008373ffffffffffffffffffffffffffffffffffffffff1673ffffffffffffffffffffffffffffffffffffffff16815260200190815260200160002060006101000a81548160ff0219169083151502179055506040518060400160405280600481526020017f5573657200000000000000000000000000000000000000000000000000000000815250600260008373ffffffffffffffffffffffffffffffffffffffff1673ffffffffffffffffffffffffffffffffffffffff168152602001908152602001600020908162000b1a9190620018d6565b5050565b60011515600160003373ffffffffffffffffffffffffffffffffffffffff1673ffffffffffffffffffffffffffffffffffffffff16815260200190815260200160002060009054906101000a900460ff1615151462000bb4576040517f08c379a000000000000000000000000000000000000000000000000000000000815260040162000bab9062001688565b60405180910390fd5b80600260008473ffffffffffffffffffffffffffffffffffffffff1673ffffffffffffffffffffffffffffffffffffffff168152602001908152602001600020908162000c029190620018d6565b505050565b6002602052806000526040600020600091509050805462000c2890620016d9565b80601f016020809104026020016040519081016040528092919081815260200182805462000c5690620016d9565b801562000ca75780601f1062000c7b5761010080835404028352916020019162000ca7565b820191906000526020600020905b81548152906001019060200180831162000c8957829003601f168201915b505050505081565b600115156000803373ffffffffffffffffffffffffffffffffffffffff1673ffffffffffffffffffffffffffffffffffffffff16815260200190815260200160002060009054906101000a900460ff1615151462000d0c57600080fd5b60018060008373ffffffffffffffffffffffffffffffffffffffff1673ffffffffffffffffffffffffffffffffffffffff16815260200190815260200160002060006101000a81548160ff0219169083151502179055506040518060400160405280600481526020017f5573657200000000000000000000000000000000000000000000000000000000815250600260008373ffffffffffffffffffffffffffffffffffffffff1673ffffffffffffffffffffffffffffffffffffffff168152602001908152602001600020908162000de69190620018d6565b5050565b613c4b80620019be83390190565b6000604051905090565b600080fd5b600080fd5b600080fd5b600080fd5b6000601f19601f8301169050919050565b7f4e487b7100000000000000000000000000000000000000000000000000000000600052604160045260246000fd5b62000e618262000e16565b810181811067ffffffffffffffff8211171562000e835762000e8262000e27565b5b80604052505050565b600062000e9862000df8565b905062000ea6828262000e56565b919050565b600067ffffffffffffffff82111562000ec95762000ec862000e27565b5b62000ed48262000e16565b9050602081019050919050565b82818337600083830152505050565b600062000f0762000f018462000eab565b62000e8c565b90508281526020810184848401111562000f265762000f2562000e11565b5b62000f3384828562000ee1565b509392505050565b600082601f83011262000f535762000f5262000e0c565b5b813562000f6584826020860162000ef0565b91505092915050565b6000819050919050565b62000f838162000f6e565b811462000f8f57600080fd5b50565b60008135905062000fa38162000f78565b92915050565b600080600080600080600080610100898b03121562000fcd5762000fcc62000e02565b5b600089013567ffffffffffffffff81111562000fee5762000fed62000e07565b5b62000ffc8b828c0162000f3b565b985050602089013567ffffffffffffffff81111562001020576200101f62000e07565b5b6200102e8b828c0162000f3b565b975050604089013567ffffffffffffffff81111562001052576200105162000e07565b5b620010608b828c0162000f3b565b9650506060620010738b828c0162000f92565b9550506080620010868b828c0162000f92565b94505060a0620010998b828c0162000f92565b93505060c089013567ffffffffffffffff811115620010bd57620010bc62000e07565b5b620010cb8b828c0162000f3b565b92505060e0620010de8b828c0162000f92565b9150509295985092959890939650565b600073ffffffffffffffffffffffffffffffffffffffff82169050919050565b60006200111b82620010ee565b9050919050565b6200112d816200110e565b81146200113957600080fd5b50565b6000813590506200114d8162001122565b92915050565b6000602082840312156200116c576200116b62000e02565b5b60006200117c848285016200113c565b91505092915050565b600080604083850312156200119f576200119e62000e02565b5b6000620011af858286016200113c565b925050602083013567ffffffffffffffff811115620011d357620011d262000e07565b5b620011e18582860162000f3b565b9150509250929050565b60008115159050919050565b6200120281620011eb565b82525050565b60006020820190506200121f6000830184620011f7565b92915050565b600081519050919050565b600082825260208201905092915050565b60005b838110156200126157808201518184015260208101905062001244565b60008484015250505050565b60006200127a8262001225565b62001286818562001230565b93506200129881856020860162001241565b620012a38162000e16565b840191505092915050565b60006020820190508181036000830152620012ca81846200126d565b905092915050565b620012dd8162000f6e565b82525050565b6000602082019050620012fa6000830184620012d2565b92915050565b600081519050919050565b600082825260208201905092915050565b6000819050602082019050919050565b6000819050919050565b600062001357620013516200134b84620010ee565b6200132c565b620010ee565b9050919050565b60006200136b8262001336565b9050919050565b60006200137f826200135e565b9050919050565b620013918162001372565b82525050565b6000620013a5838362001386565b60208301905092915050565b6000602082019050919050565b6000620013cb8262001300565b620013d781856200130b565b9350620013e4836200131c565b8060005b838110156200141b578151620013ff888262001397565b97506200140c83620013b1565b925050600181019050620013e8565b5085935050505092915050565b60006020820190508181036000830152620014448184620013be565b905092915050565b6000604082019050620014636000830185620011f7565b81810360208301526200147781846200126d565b90509392505050565b60006020828403121562001499576200149862000e02565b5b6000620014a98482850162000f92565b91505092915050565b620014bd8162001372565b82525050565b6000602082019050620014da6000830184620014b2565b92915050565b7f4e487b7100000000000000000000000000000000000000000000000000000000600052601160045260246000fd5b60006200151c8262000f6e565b9150620015298362000f6e565b9250828201905080821115620015445762001543620014e0565b5b92915050565b62001555816200110e565b82525050565b60006101608201905062001573600083018e620012d2565b818103602083015262001587818d6200126d565b905081810360408301526200159d818c6200126d565b90508181036060830152620015b3818b6200126d565b9050620015c4608083018a620012d2565b620015d360a0830189620012d2565b620015e260c08301886200154a565b620015f160e0830187620012d2565b62001601610100830186620012d2565b8181036101208301526200161681856200126d565b905062001628610140830184620012d2565b9c9b505050505050505050505050565b7f596f75722061646472657373206e6f7420766572696669656421000000000000600082015250565b600062001670601a8362001230565b91506200167d8262001638565b602082019050919050565b60006020820190508181036000830152620016a38162001661565b9050919050565b7f4e487b7100000000000000000000000000000000000000000000000000000000600052602260045260246000fd5b60006002820490506001821680620016f257607f821691505b602082108103620017085762001707620016aa565b5b50919050565b60008190508160005260206000209050919050565b60006020601f8301049050919050565b600082821b905092915050565b600060088302620017727fffffffffffffffffffffffffffffffffffffffffffffffffffffffffffffffff8262001733565b6200177e868362001733565b95508019841693508086168417925050509392505050565b6000620017b7620017b1620017ab8462000f6e565b6200132c565b62000f6e565b9050919050565b6000819050919050565b620017d38362001796565b620017eb620017e282620017be565b84845462001740565b825550505050565b600090565b62001802620017f3565b6200180f818484620017c8565b505050565b5b8181101562001837576200182b600082620017f8565b60018101905062001815565b5050565b601f821115620018865762001850816200170e565b6200185b8462001723565b810160208510156200186b578190505b620018836200187a8562001723565b83018262001814565b50505b505050565b600082821c905092915050565b6000620018ab600019846008026200188b565b1980831691505092915050565b6000620018c6838362001898565b9150826002028217905092915050565b620018e18262001225565b67ffffffffffffffff811115620018fd57620018fc62000e27565b5b620019098254620016d9565b620019168282856200183b565b600060209050601f8311600181146200194e576000841562001939578287015190505b620019458582620018b8565b865550620019b5565b601f1984166200195e866200170e565b60005b82811015620019885784890151825560018201915060208501945060208101905062001961565b86831015620019a85784890151620019a4601f89168262001898565b8355505b6001600288020188555050505b50505050505056fe60806040523480156200001157600080fd5b5060405162003c4b38038062003c4b83398181016040528101906200003791906200037e565b8a600b8190555089600c90816200004f919062000748565b5088600d908162000061919062000748565b50600e8890806001815401808255809150506001900390600052602060002001600090919091909150908162000098919062000748565b5086600f819055508560108190555084601160006101000a81548173ffffffffffffffffffffffffffffffffffffffff021916908373ffffffffffffffffffffffffffffffffffffffff1602179055508360128190555082601381905550816014908162000107919062000748565b5080601581905550600060058190555060006007819055506001600860006101000a81548160ff02191690831515021790555050505050505050505050506200082f565b6000604051905090565b600080fd5b600080fd5b6000819050919050565b62000174816200015f565b81146200018057600080fd5b50565b600081519050620001948162000169565b92915050565b600080fd5b600080fd5b6000601f19601f8301169050919050565b7f4e487b7100000000000000000000000000000000000000000000000000000000600052604160045260246000fd5b620001ef82620001a4565b810181811067ffffffffffffffff82111715620002115762000210620001b5565b5b80604052505050565b6000620002266200014b565b9050620002348282620001e4565b919050565b600067ffffffffffffffff821115620002575762000256620001b5565b5b6200026282620001a4565b9050602081019050919050565b60005b838110156200028f57808201518184015260208101905062000272565b60008484015250505050565b6000620002b2620002ac8462000239565b6200021a565b905082815260208101848484011115620002d157620002d06200019f565b5b620002de8482856200026f565b509392505050565b600082601f830112620002fe57620002fd6200019a565b5b8151620003108482602086016200029b565b91505092915050565b600073ffffffffffffffffffffffffffffffffffffffff82169050919050565b6000620003468262000319565b9050919050565b620003588162000339565b81146200036457600080fd5b50565b60008151905062000378816200034d565b92915050565b60008060008060008060008060008060006101608c8e031215620003a757620003a662000155565b5b6000620003b78e828f0162000183565b9b505060208c015167ffffffffffffffff811115620003db57620003da6200015a565b5b620003e98e828f01620002e6565b9a505060408c015167ffffffffffffffff8111156200040d576200040c6200015a565b5b6200041b8e828f01620002e6565b99505060608c015167ffffffffffffffff8111156200043f576200043e6200015a565b5b6200044d8e828f01620002e6565b9850506080620004608e828f0162000183565b97505060a0620004738e828f0162000183565b96505060c0620004868e828f0162000367565b95505060e0620004998e828f0162000183565b945050610100620004ad8e828f0162000183565b9350506101208c015167ffffffffffffffff811115620004d257620004d16200015a565b5b620004e08e828f01620002e6565b925050610140620004f48e828f0162000183565b9150509295989b509295989b9093969950565b600081519050919050565b7f4e487b7100000000000000000000000000000000000000000000000000000000600052602260045260246000fd5b600060028204905060018216806200055a57607f821691505b60208210810362000570576200056f62000512565b5b50919050565b60008190508160005260206000209050919050565b60006020601f8301049050919050565b600082821b905092915050565b600060088302620005da7fffffffffffffffffffffffffffffffffffffffffffffffffffffffffffffffff826200059b565b620005e686836200059b565b95508019841693508086168417925050509392505050565b6000819050919050565b600062000629620006236200061d846200015f565b620005fe565b6200015f565b9050919050565b6000819050919050565b620006458362000608565b6200065d620006548262000630565b848454620005a8565b825550505050565b600090565b6200067462000665565b620006818184846200063a565b505050565b5b81811015620006a9576200069d6000826200066a565b60018101905062000687565b5050565b601f821115620006f857620006c28162000576565b620006cd846200058b565b81016020851015620006dd578190505b620006f5620006ec856200058b565b83018262000686565b50505b505050565b600082821c905092915050565b60006200071d60001984600802620006fd565b1980831691505092915050565b60006200073883836200070a565b9150826002028217905092915050565b620007538262000507565b67ffffffffffffffff8111156200076f576200076e620001b5565b5b6200077b825462000541565b62000788828285620006ad565b600060209050601f831160018114620007c05760008415620007ab578287015190505b620007b785826200072a565b86555062000827565b601f198416620007d08662000576565b60005b82811015620007fa57848901518255600182019150602085019450602081019050620007d3565b868310156200081a578489015162000816601f8916826200070a565b8355505b6001600288020188555050505b505050505050565b61340c806200083f6000396000f3fe6080604052600436106101665760003560e01c80634eceeff8116100d1578063af0dbe541161008a578063d7bb99ba11610064578063d7bb99ba14610527578063f8626af814610531578063fc4a47fd1461056e578063ffabc6731461059e57610166565b8063af0dbe5414610482578063b2136ff4146104bf578063ca0cdea8146104ea57610166565b80634eceeff81461039257806364256611146103bd5780636c0ddc12146103e857806371aac7f9146103ff578063844db45014610416578063ac687cc41461043f57610166565b8063351ebb2911610123578063351ebb29146102705780633a9eec5c1461029b5780633c4ba3f6146102c45780633cb5d100146102ed5780633eaa91f51461032a57806342169e481461036757610166565b80630f8ca5ca1461016b57806311a36c431461019457806314e420c5146101bd5780631cbe2006146101e6578063236b8e3a1461022357806333831f6f14610259575b600080fd5b34801561017757600080fd5b50610192600480360381019061018d9190611fff565b6105db565b005b3480156101a057600080fd5b506101bb60048036038101906101b691906121d0565b6107e8565b005b3480156101c957600080fd5b506101e460048036038101906101df919061223f565b610a68565b005b3480156101f257600080fd5b5061020d60048036038101906102089190612308565b610a94565b60405161021a9190612344565b60405180910390f35b34801561022f57600080fd5b50610238610aac565b6040516102509c9b9a99989796959493929190612514565b60405180910390f35b34801561026557600080fd5b5061026e610da9565b005b34801561027c57600080fd5b50610285611096565b6040516102929190612344565b60405180910390f35b3480156102a757600080fd5b506102c260048036038101906102bd91906125ea565b61109c565b005b3480156102d057600080fd5b506102eb60048036038101906102e69190611fff565b6111f1565b005b3480156102f957600080fd5b50610314600480360381019061030f9190611fff565b61143e565b6040516103219190612659565b60405180910390f35b34801561033657600080fd5b50610351600480360381019061034c9190612308565b61147d565b60405161035e9190612674565b60405180910390f35b34801561037357600080fd5b5061037c61149d565b6040516103899190612344565b60405180910390f35b34801561039e57600080fd5b506103a76114a3565b6040516103b4919061281a565b60405180910390f35b3480156103c957600080fd5b506103d261162d565b6040516103df9190612344565b60405180910390f35b3480156103f457600080fd5b506103fd611633565b005b34801561040b57600080fd5b506104146117d0565b005b34801561042257600080fd5b5061043d60048036038101906104389190611fff565b6117ed565b005b34801561044b57600080fd5b5061046660048036038101906104619190611fff565b611a39565b604051610479979695949392919061284b565b60405180910390f35b34801561048e57600080fd5b506104a960048036038101906104a49190612308565b611b40565b6040516104b69190612674565b60405180910390f35b3480156104cb57600080fd5b506104d4611b60565b6040516104e19190612344565b60405180910390f35b3480156104f657600080fd5b50610511600480360381019061050c9190612308565b611b66565b60405161051e9190612674565b60405180910390f35b61052f611b86565b005b34801561053d57600080fd5b5061055860048036038101906105539190611fff565b611e5b565b6040516105659190612344565b60405180910390f35b34801561057a57600080fd5b50610583611e7f565b60405161059596959493929190612a2e565b60405180910390f35b3480156105aa57600080fd5b506105c560048036038101906105c09190612a9d565b611f86565b6040516105d29190612674565b60405180910390f35b601160009054906101000a900473ffffffffffffffffffffffffffffffffffffffff1673ffffffffffffffffffffffffffffffffffffffff163373ffffffffffffffffffffffffffffffffffffffff161461063557600080fd5b60011515600860009054906101000a900460ff1615151461065557600080fd5b60006017828154811061066b5761066a612add565b5b90600052602060002090600602019050600260045461068a9190612b6a565b816005015410156106d0576040517f08c379a00000000000000000000000000000000000000000000000000000000081526004016106c790612be7565b60405180910390fd5b8060020160149054906101000a900460ff1615610722576040517f08c379a000000000000000000000000000000000000000000000000000000000815260040161071990612c79565b60405180910390fd5b60008160020160009054906101000a900473ffffffffffffffffffffffffffffffffffffffff1673ffffffffffffffffffffffffffffffffffffffff16826001015460405161077090612cca565b60006040518083038185875af1925050503d80600081146107ad576040519150601f19603f3d011682016040523d82523d6000602084013e6107b2565b606091505b5050905080156107e35760018260020160146101000a81548160ff0219169083151502179055504282600401819055505b505050565b601160009054906101000a900473ffffffffffffffffffffffffffffffffffffffff1673ffffffffffffffffffffffffffffffffffffffff163373ffffffffffffffffffffffffffffffffffffffff161461084257600080fd5b60011515600860009054906101000a900460ff1615151461086257600080fd5b6000601760018160018154018082558091505003906000526020600020906006020190506001601354146108cb576040517f08c379a00000000000000000000000000000000000000000000000000000000081526004016108c290612d51565b60405180910390fd5b8060020160149054906101000a900460ff161561091d576040517f08c379a000000000000000000000000000000000000000000000000000000000815260040161091490612c79565b60405180910390fd5b47821115610960576040517f08c379a000000000000000000000000000000000000000000000000000000000815260040161095790612dbd565b60405180910390fd5b60008373ffffffffffffffffffffffffffffffffffffffff168360405161098690612cca565b60006040518083038185875af1925050503d80600081146109c3576040519150601f19603f3d011682016040523d82523d6000602084013e6109c8565b606091505b505090508015610a6157848260000190816109e39190612fe9565b50828260010181905550838260020160006101000a81548173ffffffffffffffffffffffffffffffffffffffff021916908373ffffffffffffffffffffffffffffffffffffffff1602179055504282600401819055506000826005018190555060018260020160146101000a81548160ff0219169083151502179055505b5050505050565b82600c9081610a779190612fe9565b5081600d9081610a879190612fe9565b5080601581905550505050565b60036020528060005260406000206000915090505481565b60608060606000806000806060600080600080600c600d600e600f54600754601160009054906101000a900473ffffffffffffffffffffffffffffffffffffffff166013546014601254600554601054600860009054906101000a900460ff168b8054610b1890612e0c565b80601f0160208091040260200160405190810160405280929190818152602001828054610b4490612e0c565b8015610b915780601f10610b6657610100808354040283529160200191610b91565b820191906000526020600020905b815481529060010190602001808311610b7457829003601f168201915b50505050509b508a8054610ba490612e0c565b80601f0160208091040260200160405190810160405280929190818152602001828054610bd090612e0c565b8015610c1d5780601f10610bf257610100808354040283529160200191610c1d565b820191906000526020600020905b815481529060010190602001808311610c0057829003601f168201915b50505050509a5089805480602002602001604051908101604052809291908181526020016000905b82821015610cf1578382906000526020600020018054610c6490612e0c565b80601f0160208091040260200160405190810160405280929190818152602001828054610c9090612e0c565b8015610cdd5780601f10610cb257610100808354040283529160200191610cdd565b820191906000526020600020905b815481529060010190602001808311610cc057829003601f168201915b505050505081526020019060010190610c45565b505050509950848054610d0390612e0c565b80601f0160208091040260200160405190810160405280929190818152602001828054610d2f90612e0c565b8015610d7c5780601f10610d5157610100808354040283529160200191610d7c565b820191906000526020600020905b815481529060010190602001808311610d5f57829003601f168201915b505050505094509b509b509b509b509b509b509b509b509b509b509b509b50909192939495969798999a9b565b60003390506000808273ffffffffffffffffffffffffffffffffffffffff1673ffffffffffffffffffffffffffffffffffffffff16815260200190815260200160002060009054906101000a900460ff16610e0357600080fd5b6000600360008373ffffffffffffffffffffffffffffffffffffffff1673ffffffffffffffffffffffffffffffffffffffff1681526020019081526020016000205411610e4f57600080fd5b6000600360008373ffffffffffffffffffffffffffffffffffffffff1673ffffffffffffffffffffffffffffffffffffffff16815260200190815260200160002054905060008273ffffffffffffffffffffffffffffffffffffffff1682604051610eb990612cca565b60006040518083038185875af1925050503d8060008114610ef6576040519150601f19603f3d011682016040523d82523d6000602084013e610efb565b606091505b5050905080156110915781600754610f1391906130bb565b6007819055506000600360008573ffffffffffffffffffffffffffffffffffffffff1673ffffffffffffffffffffffffffffffffffffffff1681526020019081526020016000208190555060008060008573ffffffffffffffffffffffffffffffffffffffff1673ffffffffffffffffffffffffffffffffffffffff16815260200190815260200160002060006101000a81548160ff02191690831515021790555060056000815480929190610fc8906130ef565b9190505550600160008473ffffffffffffffffffffffffffffffffffffffff1673ffffffffffffffffffffffffffffffffffffffff16815260200190815260200160002060009054906101000a900460ff16156110905760046000815480929190611032906130ef565b91905055506000600160008573ffffffffffffffffffffffffffffffffffffffff1673ffffffffffffffffffffffffffffffffffffffff16815260200190815260200160002060006101000a81548160ff0219169083151502179055505b5b505050565b60065481565b601160009054906101000a900473ffffffffffffffffffffffffffffffffffffffff1673ffffffffffffffffffffffffffffffffffffffff163373ffffffffffffffffffffffffffffffffffffffff16146110f657600080fd5b47821115611139576040517f08c379a00000000000000000000000000000000000000000000000000000000081526004016111309061318a565b60405180910390fd5b6000601760018160018154018082558091505003906000526020600020906006020190508381600001908161116e9190612fe9565b50828160010181905550818160020160006101000a81548173ffffffffffffffffffffffffffffffffffffffff021916908373ffffffffffffffffffffffffffffffffffffffff16021790555060008160020160146101000a81548160ff0219169083151502179055504281600301819055506000816005018190555050505050565b600160003373ffffffffffffffffffffffffffffffffffffffff1673ffffffffffffffffffffffffffffffffffffffff16815260200190815260200160002060009054906101000a900460ff1661124757600080fd5b60011515600860009054906101000a900460ff1615151461126757600080fd5b60006017828154811061127d5761127c612add565b5b90600052602060002090600602019050600160003373ffffffffffffffffffffffffffffffffffffffff1673ffffffffffffffffffffffffffffffffffffffff16815260200190815260200160002060009054906101000a900460ff16611319576040517f08c379a0000000000000000000000000000000000000000000000000000000008152600401611310906131f6565b60405180910390fd5b601660003373ffffffffffffffffffffffffffffffffffffffff1673ffffffffffffffffffffffffffffffffffffffff168152602001908152602001600020600083815260200190815260200160002060009054906101000a900460ff16156113b7576040517f08c379a00000000000000000000000000000000000000000000000000000000081526004016113ae90613262565b60405180910390fd5b6001601660003373ffffffffffffffffffffffffffffffffffffffff1673ffffffffffffffffffffffffffffffffffffffff168152602001908152602001600020600084815260200190815260200160002060006101000a81548160ff02191690831515021790555080600501600081548092919061143590613282565b91905055505050565b6009818154811061144e57600080fd5b906000526020600020016000915054906101000a900473ffffffffffffffffffffffffffffffffffffffff1681565b60026020528060005260406000206000915054906101000a900460ff1681565b60045481565b60606017805480602002602001604051908101604052809291908181526020016000905b8282101561162457838290600052602060002090600602016040518060e00160405290816000820180546114fa90612e0c565b80601f016020809104026020016040519081016040528092919081815260200182805461152690612e0c565b80156115735780601f1061154857610100808354040283529160200191611573565b820191906000526020600020905b81548152906001019060200180831161155657829003601f168201915b50505050508152602001600182015481526020016002820160009054906101000a900473ffffffffffffffffffffffffffffffffffffffff1673ffffffffffffffffffffffffffffffffffffffff1673ffffffffffffffffffffffffffffffffffffffff1681526020016002820160149054906101000a900460ff161515151581526020016003820154815260200160048201548152602001600582015481525050815260200190600101906114c7565b50505050905090565b60075481565b60001515600260003373ffffffffffffffffffffffffffffffffffffffff1673ffffffffffffffffffffffffffffffffffffffff16815260200190815260200160002060009054906101000a900460ff161515146116c6576040517f08c379a00000000000000000000000000000000000000000000000000000000081526004016116bd90613316565b60405180910390fd5b6000803373ffffffffffffffffffffffffffffffffffffffff1673ffffffffffffffffffffffffffffffffffffffff16815260200190815260200160002060009054906101000a900460ff1661171b57600080fd5b6006600081548092919061172e90613282565b91905055506001600260003373ffffffffffffffffffffffffffffffffffffffff1673ffffffffffffffffffffffffffffffffffffffff16815260200190815260200160002060006101000a81548160ff021916908315150217905550600260055461179a9190612b6a565b6006541180156117ad5750600360055410155b156117ce576000600860006101000a81548160ff0219169083151502179055505b565b6000600860006101000a81548160ff021916908315150217905550565b600160003373ffffffffffffffffffffffffffffffffffffffff1673ffffffffffffffffffffffffffffffffffffffff16815260200190815260200160002060009054906101000a900460ff1661184357600080fd5b60011515600860009054906101000a900460ff1615151461186357600080fd5b60006017828154811061187957611878612add565b5b90600052602060002090600602019050600160003373ffffffffffffffffffffffffffffffffffffffff1673ffffffffffffffffffffffffffffffffffffffff16815260200190815260200160002060009054906101000a900460ff16611915576040517f08c379a000000000000000000000000000000000000000000000000000000000815260040161190c906131f6565b60405180910390fd5b601660003373ffffffffffffffffffffffffffffffffffffffff1673ffffffffffffffffffffffffffffffffffffffff168152602001908152602001600020600083815260200190815260200160002060009054906101000a900460ff166119b2576040517f08c379a00000000000000000000000000000000000000000000000000000000081526004016119a990613382565b60405180910390fd5b6000601660003373ffffffffffffffffffffffffffffffffffffffff1673ffffffffffffffffffffffffffffffffffffffff168152602001908152602001600020600084815260200190815260200160002060006101000a81548160ff021916908315150217905550806005016000815480929190611a30906130ef565b91905055505050565b60178181548110611a4957600080fd5b9060005260206000209060060201600091509050806000018054611a6c90612e0c565b80601f0160208091040260200160405190810160405280929190818152602001828054611a9890612e0c565b8015611ae55780601f10611aba57610100808354040283529160200191611ae5565b820191906000526020600020905b815481529060010190602001808311611ac857829003601f168201915b5050505050908060010154908060020160009054906101000a900473ffffffffffffffffffffffffffffffffffffffff16908060020160149054906101000a900460ff16908060030154908060040154908060050154905087565b60016020528060005260406000206000915054906101000a900460ff1681565b60055481565b60006020528060005260406000206000915054906101000a900460ff1681565b60011515600860009054906101000a900460ff16151514611ba657600080fd5b60003490506009339080600181540180825580915050600190039060005260206000200160009091909190916101000a81548173ffffffffffffffffffffffffffffffffffffffff021916908373ffffffffffffffffffffffffffffffffffffffff160217905550600a81908060018154018082558091505060019003906000526020600020016000909190919091505580600754611c4591906133a2565b60078190555034600360003373ffffffffffffffffffffffffffffffffffffffff1673ffffffffffffffffffffffffffffffffffffffff16815260200190815260200160002054611c9691906133a2565b600360003373ffffffffffffffffffffffffffffffffffffffff1673ffffffffffffffffffffffffffffffffffffffff1681526020019081526020016000208190555060016000803373ffffffffffffffffffffffffffffffffffffffff1673ffffffffffffffffffffffffffffffffffffffff16815260200190815260200160002060006101000a81548160ff02191690831515021790555060056000815480929190611d4390613282565b9190505550601554600360003373ffffffffffffffffffffffffffffffffffffffff1673ffffffffffffffffffffffffffffffffffffffff1681526020019081526020016000205410158015611de35750600160003373ffffffffffffffffffffffffffffffffffffffff1673ffffffffffffffffffffffffffffffffffffffff16815260200190815260200160002060009054906101000a900460ff16155b15611e585760018060003373ffffffffffffffffffffffffffffffffffffffff1673ffffffffffffffffffffffffffffffffffffffff16815260200190815260200160002060006101000a81548160ff02191690831515021790555060046000815480929190611e5290613282565b91905055505b50565b600a8181548110611e6b57600080fd5b906000526020600020016000915090505481565b6000806060806000806004546006546009600a60155460045483805480602002602001604051908101604052809291908181526020018280548015611f1957602002820191906000526020600020905b8160009054906101000a900473ffffffffffffffffffffffffffffffffffffffff1673ffffffffffffffffffffffffffffffffffffffff1681526020019060010190808311611ecf575b5050505050935082805480602002602001604051908101604052809291908181526020018280548015611f6b57602002820191906000526020600020905b815481526020019060010190808311611f57575b50505050509250955095509550955095509550909192939495565b60166020528160005260406000206020528060005260406000206000915091509054906101000a900460ff1681565b6000604051905090565b600080fd5b600080fd5b6000819050919050565b611fdc81611fc9565b8114611fe757600080fd5b50565b600081359050611ff981611fd3565b92915050565b60006020828403121561201557612014611fbf565b5b600061202384828501611fea565b91505092915050565b600080fd5b600080fd5b6000601f19601f8301169050919050565b7f4e487b7100000000000000000000000000000000000000000000000000000000600052604160045260246000fd5b61207f82612036565b810181811067ffffffffffffffff8211171561209e5761209d612047565b5b80604052505050565b60006120b1611fb5565b90506120bd8282612076565b919050565b600067ffffffffffffffff8211156120dd576120dc612047565b5b6120e682612036565b9050602081019050919050565b82818337600083830152505050565b6000612115612110846120c2565b6120a7565b90508281526020810184848401111561213157612130612031565b5b61213c8482856120f3565b509392505050565b600082601f8301126121595761215861202c565b5b8135612169848260208601612102565b91505092915050565b600073ffffffffffffffffffffffffffffffffffffffff82169050919050565b600061219d82612172565b9050919050565b6121ad81612192565b81146121b857600080fd5b50565b6000813590506121ca816121a4565b92915050565b6000806000606084860312156121e9576121e8611fbf565b5b600084013567ffffffffffffffff81111561220757612206611fc4565b5b61221386828701612144565b9350506020612224868287016121bb565b925050604061223586828701611fea565b9150509250925092565b60008060006060848603121561225857612257611fbf565b5b600084013567ffffffffffffffff81111561227657612275611fc4565b5b61228286828701612144565b935050602084013567ffffffffffffffff8111156122a3576122a2611fc4565b5b6122af86828701612144565b92505060406122c086828701611fea565b9150509250925092565b60006122d582612172565b9050919050565b6122e5816122ca565b81146122f057600080fd5b50565b600081359050612302816122dc565b92915050565b60006020828403121561231e5761231d611fbf565b5b600061232c848285016122f3565b91505092915050565b61233e81611fc9565b82525050565b60006020820190506123596000830184612335565b92915050565b600081519050919050565b600082825260208201905092915050565b60005b8381101561239957808201518184015260208101905061237e565b60008484015250505050565b60006123b08261235f565b6123ba818561236a565b93506123ca81856020860161237b565b6123d381612036565b840191505092915050565b600081519050919050565b600082825260208201905092915050565b6000819050602082019050919050565b600082825260208201905092915050565b60006124268261235f565b612430818561240a565b935061244081856020860161237b565b61244981612036565b840191505092915050565b6000612460838361241b565b905092915050565b6000602082019050919050565b6000612480826123de565b61248a81856123e9565b93508360208202850161249c856123fa565b8060005b858110156124d857848403895281516124b98582612454565b94506124c483612468565b925060208a019950506001810190506124a0565b50829750879550505050505092915050565b6124f3816122ca565b82525050565b60008115159050919050565b61250e816124f9565b82525050565b600061018082019050818103600083015261252f818f6123a5565b90508181036020830152612543818e6123a5565b90508181036040830152612557818d612475565b9050612566606083018c612335565b612573608083018b612335565b61258060a083018a6124ea565b61258d60c0830189612335565b81810360e083015261259f81886123a5565b90506125af610100830187612335565b6125bd610120830186612335565b6125cb610140830185612335565b6125d9610160830184612505565b9d9c50505050505050505050505050565b60008060006060848603121561260357612602611fbf565b5b600084013567ffffffffffffffff81111561262157612620611fc4565b5b61262d86828701612144565b935050602061263e86828701611fea565b925050604061264f868287016121bb565b9150509250925092565b600060208201905061266e60008301846124ea565b92915050565b60006020820190506126896000830184612505565b92915050565b600081519050919050565b600082825260208201905092915050565b6000819050602082019050919050565b6126c481611fc9565b82525050565b6126d381612192565b82525050565b6126e2816124f9565b82525050565b600060e0830160008301518482036000860152612705828261241b565b915050602083015161271a60208601826126bb565b50604083015161272d60408601826126ca565b50606083015161274060608601826126d9565b50608083015161275360808601826126bb565b5060a083015161276660a08601826126bb565b5060c083015161277960c08601826126bb565b508091505092915050565b600061279083836126e8565b905092915050565b6000602082019050919050565b60006127b08261268f565b6127ba818561269a565b9350836020820285016127cc856126ab565b8060005b8581101561280857848403895281516127e98582612784565b94506127f483612798565b925060208a019950506001810190506127d0565b50829750879550505050505092915050565b6000602082019050818103600083015261283481846127a5565b905092915050565b61284581612192565b82525050565b600060e0820190508181036000830152612865818a6123a5565b90506128746020830189612335565b612881604083018861283c565b61288e6060830187612505565b61289b6080830186612335565b6128a860a0830185612335565b6128b560c0830184612335565b98975050505050505050565b600081519050919050565b600082825260208201905092915050565b6000819050602082019050919050565b6128f6816122ca565b82525050565b600061290883836128ed565b60208301905092915050565b6000602082019050919050565b600061292c826128c1565b61293681856128cc565b9350612941836128dd565b8060005b8381101561297257815161295988826128fc565b975061296483612914565b925050600181019050612945565b5085935050505092915050565b600081519050919050565b600082825260208201905092915050565b6000819050602082019050919050565b60006129b783836126bb565b60208301905092915050565b6000602082019050919050565b60006129db8261297f565b6129e5818561298a565b93506129f08361299b565b8060005b83811015612a21578151612a0888826129ab565b9750612a13836129c3565b9250506001810190506129f4565b5085935050505092915050565b600060c082019050612a436000830189612335565b612a506020830188612335565b8181036040830152612a628187612921565b90508181036060830152612a7681866129d0565b9050612a856080830185612335565b612a9260a0830184612335565b979650505050505050565b60008060408385031215612ab457612ab3611fbf565b5b6000612ac2858286016122f3565b9250506020612ad385828601611fea565b9150509250929050565b7f4e487b7100000000000000000000000000000000000000000000000000000000600052603260045260246000fd5b7f4e487b7100000000000000000000000000000000000000000000000000000000600052601260045260246000fd5b7f4e487b7100000000000000000000000000000000000000000000000000000000600052601160045260246000fd5b6000612b7582611fc9565b9150612b8083611fc9565b925082612b9057612b8f612b0c565b5b828204905092915050565b7f417070726f76616c20686173206e6f7420657863656564656420353025000000600082015250565b6000612bd1601d8361236a565b9150612bdc82612b9b565b602082019050919050565b60006020820190508181036000830152612c0081612bc4565b9050919050565b7f54686973207769746864726177616c20686173206265656e20636f6d706c657460008201527f6564000000000000000000000000000000000000000000000000000000000000602082015250565b6000612c6360228361236a565b9150612c6e82612c07565b604082019050919050565b60006020820190508181036000830152612c9281612c56565b9050919050565b600081905092915050565b50565b6000612cb4600083612c99565b9150612cbf82612ca4565b600082019050919050565b6000612cd582612ca7565b9150819050919050565b7f546869732074797065206f662063616d706169676e206973206e6f742075726760008201527f656e740000000000000000000000000000000000000000000000000000000000602082015250565b6000612d3b60238361236a565b9150612d4682612cdf565b604082019050919050565b60006020820190508181036000830152612d6a81612d2e565b9050919050565b7f4e6f7420656e6f75676820616d6f756e74000000000000000000000000000000600082015250565b6000612da760118361236a565b9150612db282612d71565b602082019050919050565b60006020820190508181036000830152612dd681612d9a565b9050919050565b7f4e487b7100000000000000000000000000000000000000000000000000000000600052602260045260246000fd5b60006002820490506001821680612e2457607f821691505b602082108103612e3757612e36612ddd565b5b50919050565b60008190508160005260206000209050919050565b60006020601f8301049050919050565b600082821b905092915050565b600060088302612e9f7fffffffffffffffffffffffffffffffffffffffffffffffffffffffffffffffff82612e62565b612ea98683612e62565b95508019841693508086168417925050509392505050565b6000819050919050565b6000612ee6612ee1612edc84611fc9565b612ec1565b611fc9565b9050919050565b6000819050919050565b612f0083612ecb565b612f14612f0c82612eed565b848454612e6f565b825550505050565b600090565b612f29612f1c565b612f34818484612ef7565b505050565b5b81811015612f5857612f4d600082612f21565b600181019050612f3a565b5050565b601f821115612f9d57612f6e81612e3d565b612f7784612e52565b81016020851015612f86578190505b612f9a612f9285612e52565b830182612f39565b50505b505050565b600082821c905092915050565b6000612fc060001984600802612fa2565b1980831691505092915050565b6000612fd98383612faf565b9150826002028217905092915050565b612ff28261235f565b67ffffffffffffffff81111561300b5761300a612047565b5b6130158254612e0c565b613020828285612f5c565b600060209050601f8311600181146130535760008415613041578287015190505b61304b8582612fcd565b8655506130b3565b601f19841661306186612e3d565b60005b8281101561308957848901518255600182019150602085019450602081019050613064565b868310156130a657848901516130a2601f891682612faf565b8355505b6001600288020188555050505b505050505050565b60006130c682611fc9565b91506130d183611fc9565b92508282039050818111156130e9576130e8612b3b565b5b92915050565b60006130fa82611fc9565b91506000820361310d5761310c612b3b565b5b600182039050919050565b7f54686520646573697265642066756e647320617265206e6f742073756666696360008201527f69656e7420746f206d616b652061207769746864726177616c00000000000000602082015250565b600061317460398361236a565b915061317f82613118565b604082019050919050565b600060208201905081810360008301526131a381613167565b9050919050565b7f416464726573732063616e277420766f74650000000000000000000000000000600082015250565b60006131e060128361236a565b91506131eb826131aa565b602082019050919050565b6000602082019050818103600083015261320f816131d3565b9050919050565b7f5573657220616c726561647920766f7465642100000000000000000000000000600082015250565b600061324c60138361236a565b915061325782613216565b602082019050919050565b6000602082019050818103600083015261327b8161323f565b9050919050565b600061328d82611fc9565b91507fffffffffffffffffffffffffffffffffffffffffffffffffffffffffffffffff82036132bf576132be612b3b565b5b600182019050919050565b7f616c726561647920766f74650000000000000000000000000000000000000000600082015250565b6000613300600c8361236a565b915061330b826132ca565b602082019050919050565b6000602082019050818103600083015261332f816132f3565b9050919050565b7f55736572206e6f7420766f746520796574000000000000000000000000000000600082015250565b600061336c60118361236a565b915061337782613336565b602082019050919050565b6000602082019050818103600083015261339b8161335f565b9050919050565b60006133ad82611fc9565b91506133b883611fc9565b92508282019050808211156133d0576133cf612b3b565b5b9291505056fea2646970667358221220c9c6955a7b703427ef7607197b184775cd29e923c0ce0c9b612c52becebf9c8864736f6c63430008110033a2646970667358221220e8331e901f0cb22b42d8ea6ead2cadc028fe0951dda23473b44f1ca5abcf369a64736f6c63430008110033",
  "linkReferences": {},
  "deployedLinkReferences": {}
}